{
  "_format": "hh-sol-artifact-1",
  "contractName": "ReactionNFT",
  "sourceName": "contracts/ReactionNFT.sol",
  "abi": [
    {
      "inputs": [
        {
          "internalType": "address",
          "name": "_owner",
          "type": "address"
        },
        {
          "internalType": "string",
          "name": "_baseMetadataURI",
          "type": "string"
        }
      ],
      "stateMutability": "nonpayable",
      "type": "constructor"
    },
    {
      "inputs": [
        {
          "internalType": "address",
          "name": "sender",
          "type": "address"
        },
        {
          "internalType": "uint256",
          "name": "tokenId",
          "type": "uint256"
        },
        {
          "internalType": "address",
          "name": "owner",
          "type": "address"
        }
      ],
      "name": "ERC721IncorrectOwner",
      "type": "error"
    },
    {
      "inputs": [
        {
          "internalType": "address",
          "name": "operator",
          "type": "address"
        },
        {
          "internalType": "uint256",
          "name": "tokenId",
          "type": "uint256"
        }
      ],
      "name": "ERC721InsufficientApproval",
      "type": "error"
    },
    {
      "inputs": [
        {
          "internalType": "address",
          "name": "approver",
          "type": "address"
        }
      ],
      "name": "ERC721InvalidApprover",
      "type": "error"
    },
    {
      "inputs": [
        {
          "internalType": "address",
          "name": "operator",
          "type": "address"
        }
      ],
      "name": "ERC721InvalidOperator",
      "type": "error"
    },
    {
      "inputs": [
        {
          "internalType": "address",
          "name": "owner",
          "type": "address"
        }
      ],
      "name": "ERC721InvalidOwner",
      "type": "error"
    },
    {
      "inputs": [
        {
          "internalType": "address",
          "name": "receiver",
          "type": "address"
        }
      ],
      "name": "ERC721InvalidReceiver",
      "type": "error"
    },
    {
      "inputs": [
        {
          "internalType": "address",
          "name": "sender",
          "type": "address"
        }
      ],
      "name": "ERC721InvalidSender",
      "type": "error"
    },
    {
      "inputs": [
        {
          "internalType": "uint256",
          "name": "tokenId",
          "type": "uint256"
        }
      ],
      "name": "ERC721NonexistentToken",
      "type": "error"
    },
    {
      "inputs": [],
      "name": "EnforcedPause",
      "type": "error"
    },
    {
      "inputs": [],
      "name": "ExpectedPause",
      "type": "error"
    },
    {
      "inputs": [
        {
          "internalType": "address",
          "name": "owner",
          "type": "address"
        }
      ],
      "name": "OwnableInvalidOwner",
      "type": "error"
    },
    {
      "inputs": [
        {
          "internalType": "address",
          "name": "account",
          "type": "address"
        }
      ],
      "name": "OwnableUnauthorizedAccount",
      "type": "error"
    },
    {
      "inputs": [],
      "name": "ReentrancyGuardReentrantCall",
      "type": "error"
    },
    {
      "anonymous": false,
      "inputs": [
        {
          "indexed": true,
          "internalType": "address",
          "name": "owner",
          "type": "address"
        },
        {
          "indexed": true,
          "internalType": "address",
          "name": "approved",
          "type": "address"
        },
        {
          "indexed": true,
          "internalType": "uint256",
          "name": "tokenId",
          "type": "uint256"
        }
      ],
      "name": "Approval",
      "type": "event"
    },
    {
      "anonymous": false,
      "inputs": [
        {
          "indexed": true,
          "internalType": "address",
          "name": "owner",
          "type": "address"
        },
        {
          "indexed": true,
          "internalType": "address",
          "name": "operator",
          "type": "address"
        },
        {
          "indexed": false,
          "internalType": "bool",
          "name": "approved",
          "type": "bool"
        }
      ],
      "name": "ApprovalForAll",
      "type": "event"
    },
    {
      "anonymous": false,
      "inputs": [
        {
          "indexed": false,
          "internalType": "uint256",
          "name": "_fromTokenId",
          "type": "uint256"
        },
        {
          "indexed": false,
          "internalType": "uint256",
          "name": "_toTokenId",
          "type": "uint256"
        }
      ],
      "name": "BatchMetadataUpdate",
      "type": "event"
    },
    {
      "anonymous": false,
      "inputs": [
        {
          "indexed": false,
          "internalType": "uint256",
          "name": "_tokenId",
          "type": "uint256"
        }
      ],
      "name": "MetadataUpdate",
      "type": "event"
    },
    {
      "anonymous": false,
      "inputs": [
        {
          "indexed": true,
          "internalType": "address",
          "name": "previousOwner",
          "type": "address"
        },
        {
          "indexed": true,
          "internalType": "address",
          "name": "newOwner",
          "type": "address"
        }
      ],
      "name": "OwnershipTransferred",
      "type": "event"
    },
    {
      "anonymous": false,
      "inputs": [
        {
          "indexed": false,
          "internalType": "address",
          "name": "account",
          "type": "address"
        }
      ],
      "name": "Paused",
      "type": "event"
    },
    {
      "anonymous": false,
      "inputs": [
        {
          "indexed": true,
          "internalType": "uint256",
          "name": "tokenId",
          "type": "uint256"
        },
        {
          "indexed": true,
          "internalType": "address",
          "name": "fan",
          "type": "address"
        },
        {
          "indexed": true,
          "internalType": "string",
          "name": "athleteId",
          "type": "string"
        },
        {
          "indexed": false,
          "internalType": "enum ReactionNFT.ReactionType",
          "name": "reactionType",
          "type": "uint8"
        },
        {
          "indexed": false,
          "internalType": "uint256",
          "name": "supportAmount",
          "type": "uint256"
        }
      ],
      "name": "ReactionMinted",
      "type": "event"
    },
    {
      "anonymous": false,
      "inputs": [
        {
          "indexed": true,
          "internalType": "uint256",
          "name": "tokenId",
          "type": "uint256"
        },
        {
          "indexed": true,
          "internalType": "address",
          "name": "fan",
          "type": "address"
        },
        {
          "indexed": false,
          "internalType": "string",
          "name": "reason",
          "type": "string"
        }
      ],
      "name": "SpecialReactionMinted",
      "type": "event"
    },
    {
      "anonymous": false,
      "inputs": [
        {
          "indexed": true,
          "internalType": "address",
          "name": "from",
          "type": "address"
        },
        {
          "indexed": true,
          "internalType": "address",
          "name": "to",
          "type": "address"
        },
        {
          "indexed": true,
          "internalType": "uint256",
          "name": "tokenId",
          "type": "uint256"
        }
      ],
      "name": "Transfer",
      "type": "event"
    },
    {
      "anonymous": false,
      "inputs": [
        {
          "indexed": false,
          "internalType": "address",
          "name": "account",
          "type": "address"
        }
      ],
      "name": "Unpaused",
      "type": "event"
    },
    {
      "inputs": [
        {
          "internalType": "address",
          "name": "to",
          "type": "address"
        },
        {
          "internalType": "uint256",
          "name": "tokenId",
          "type": "uint256"
        }
      ],
      "name": "approve",
      "outputs": [],
      "stateMutability": "nonpayable",
      "type": "function"
    },
    {
      "inputs": [
        {
          "internalType": "string",
          "name": "",
          "type": "string"
        },
        {
          "internalType": "uint256",
          "name": "",
          "type": "uint256"
        }
      ],
      "name": "athleteReactions",
      "outputs": [
        {
          "internalType": "uint256",
          "name": "",
          "type": "uint256"
        }
      ],
      "stateMutability": "view",
      "type": "function"
    },
    {
      "inputs": [
        {
          "internalType": "address",
          "name": "owner",
          "type": "address"
        }
      ],
      "name": "balanceOf",
      "outputs": [
        {
          "internalType": "uint256",
          "name": "",
          "type": "uint256"
        }
      ],
      "stateMutability": "view",
      "type": "function"
    },
    {
      "inputs": [],
      "name": "baseMetadataURI",
      "outputs": [
        {
          "internalType": "string",
          "name": "",
          "type": "string"
        }
      ],
      "stateMutability": "view",
      "type": "function"
    },
    {
      "inputs": [],
      "name": "fanFuelToken",
      "outputs": [
        {
          "internalType": "address",
          "name": "",
          "type": "address"
        }
      ],
      "stateMutability": "view",
      "type": "function"
    },
    {
      "inputs": [
        {
          "internalType": "address",
          "name": "",
          "type": "address"
        },
        {
          "internalType": "uint256",
          "name": "",
          "type": "uint256"
        }
      ],
      "name": "fanReactions",
      "outputs": [
        {
          "internalType": "uint256",
          "name": "",
          "type": "uint256"
        }
      ],
      "stateMutability": "view",
      "type": "function"
    },
    {
      "inputs": [
        {
          "internalType": "uint256",
          "name": "tokenId",
          "type": "uint256"
        }
      ],
      "name": "getApproved",
      "outputs": [
        {
          "internalType": "address",
          "name": "",
          "type": "address"
        }
      ],
      "stateMutability": "view",
      "type": "function"
    },
    {
      "inputs": [
        {
          "internalType": "string",
          "name": "athleteId",
          "type": "string"
        }
      ],
      "name": "getAthleteReactions",
      "outputs": [
        {
          "internalType": "uint256[]",
          "name": "",
          "type": "uint256[]"
        }
      ],
      "stateMutability": "view",
      "type": "function"
    },
    {
      "inputs": [
        {
          "internalType": "address",
          "name": "fan",
          "type": "address"
        }
      ],
      "name": "getFanReactions",
      "outputs": [
        {
          "internalType": "uint256[]",
          "name": "",
          "type": "uint256[]"
        }
      ],
      "stateMutability": "view",
      "type": "function"
    },
    {
      "inputs": [
        {
          "internalType": "uint256",
          "name": "tokenId",
          "type": "uint256"
        }
      ],
      "name": "getReactionData",
      "outputs": [
        {
          "components": [
            {
              "internalType": "address",
              "name": "fan",
              "type": "address"
            },
            {
              "internalType": "string",
              "name": "athleteId",
              "type": "string"
            },
            {
              "internalType": "string",
              "name": "athleteName",
              "type": "string"
            },
            {
              "internalType": "enum ReactionNFT.ReactionType",
              "name": "reactionType",
              "type": "uint8"
            },
            {
              "internalType": "uint256",
              "name": "supportAmount",
              "type": "uint256"
            },
            {
              "internalType": "string",
              "name": "commentary",
              "type": "string"
            },
            {
              "internalType": "uint256",
              "name": "timestamp",
              "type": "uint256"
            },
            {
              "internalType": "string",
              "name": "metadataURI",
              "type": "string"
            },
            {
              "internalType": "bool",
              "name": "isSpecial",
              "type": "bool"
            }
          ],
          "internalType": "struct ReactionNFT.ReactionData",
          "name": "",
          "type": "tuple"
        }
      ],
      "stateMutability": "view",
      "type": "function"
    },
    {
      "inputs": [
        {
          "internalType": "enum ReactionNFT.ReactionType",
          "name": "reactionType",
          "type": "uint8"
        }
      ],
      "name": "getReactionTypeInfo",
      "outputs": [
        {
          "internalType": "string",
          "name": "name",
          "type": "string"
        },
        {
          "internalType": "string",
          "name": "emoji",
          "type": "string"
        },
        {
          "internalType": "uint256",
          "name": "minAmount",
          "type": "uint256"
        }
      ],
      "stateMutability": "view",
      "type": "function"
    },
    {
      "inputs": [
        {
          "internalType": "address",
          "name": "owner",
          "type": "address"
        },
        {
          "internalType": "address",
          "name": "operator",
          "type": "address"
        }
      ],
      "name": "isApprovedForAll",
      "outputs": [
        {
          "internalType": "bool",
          "name": "",
          "type": "bool"
        }
      ],
      "stateMutability": "view",
      "type": "function"
    },
    {
      "inputs": [
        {
          "internalType": "address",
          "name": "fan",
          "type": "address"
        },
        {
          "internalType": "string",
          "name": "athleteId",
          "type": "string"
        },
        {
          "internalType": "string",
          "name": "athleteName",
          "type": "string"
        },
        {
          "internalType": "enum ReactionNFT.ReactionType",
          "name": "reactionType",
          "type": "uint8"
        },
        {
          "internalType": "uint256",
          "name": "supportAmount",
          "type": "uint256"
        },
        {
          "internalType": "string",
          "name": "commentary",
          "type": "string"
        },
        {
          "internalType": "string",
          "name": "metadataURI",
          "type": "string"
        }
      ],
      "name": "mintReaction",
      "outputs": [
        {
          "internalType": "uint256",
          "name": "",
          "type": "uint256"
        }
      ],
      "stateMutability": "nonpayable",
      "type": "function"
    },
    {
      "inputs": [
        {
          "internalType": "address",
          "name": "fan",
          "type": "address"
        },
        {
          "internalType": "string",
          "name": "athleteId",
          "type": "string"
        },
        {
          "internalType": "string",
          "name": "athleteName",
          "type": "string"
        },
        {
          "internalType": "string",
          "name": "specialReason",
          "type": "string"
        },
        {
          "internalType": "string",
          "name": "metadataURI",
          "type": "string"
        }
      ],
      "name": "mintSpecialReaction",
      "outputs": [
        {
          "internalType": "uint256",
          "name": "",
          "type": "uint256"
        }
      ],
      "stateMutability": "nonpayable",
      "type": "function"
    },
    {
      "inputs": [],
      "name": "name",
      "outputs": [
        {
          "internalType": "string",
          "name": "",
          "type": "string"
        }
      ],
      "stateMutability": "view",
      "type": "function"
    },
    {
      "inputs": [],
      "name": "owner",
      "outputs": [
        {
          "internalType": "address",
          "name": "",
          "type": "address"
        }
      ],
      "stateMutability": "view",
      "type": "function"
    },
    {
      "inputs": [
        {
          "internalType": "uint256",
          "name": "tokenId",
          "type": "uint256"
        }
      ],
      "name": "ownerOf",
      "outputs": [
        {
          "internalType": "address",
          "name": "",
          "type": "address"
        }
      ],
      "stateMutability": "view",
      "type": "function"
    },
    {
      "inputs": [],
      "name": "paused",
      "outputs": [
        {
          "internalType": "bool",
          "name": "",
          "type": "bool"
        }
      ],
      "stateMutability": "view",
      "type": "function"
    },
    {
      "inputs": [
        {
          "internalType": "enum ReactionNFT.ReactionType",
          "name": "",
          "type": "uint8"
        }
      ],
      "name": "reactionRarities",
      "outputs": [
        {
          "internalType": "string",
          "name": "name",
          "type": "string"
        },
        {
          "internalType": "uint256",
          "name": "minAmount",
          "type": "uint256"
        },
        {
          "internalType": "uint256",
          "name": "tokenMultiplier",
          "type": "uint256"
        },
        {
          "internalType": "string",
          "name": "emoji",
          "type": "string"
        }
      ],
      "stateMutability": "view",
      "type": "function"
    },
    {
      "inputs": [
        {
          "internalType": "uint256",
          "name": "",
          "type": "uint256"
        }
      ],
      "name": "reactions",
      "outputs": [
        {
          "internalType": "address",
          "name": "fan",
          "type": "address"
        },
        {
          "internalType": "string",
          "name": "athleteId",
          "type": "string"
        },
        {
          "internalType": "string",
          "name": "athleteName",
          "type": "string"
        },
        {
          "internalType": "enum ReactionNFT.ReactionType",
          "name": "reactionType",
          "type": "uint8"
        },
        {
          "internalType": "uint256",
          "name": "supportAmount",
          "type": "uint256"
        },
        {
          "internalType": "string",
          "name": "commentary",
          "type": "string"
        },
        {
          "internalType": "uint256",
          "name": "timestamp",
          "type": "uint256"
        },
        {
          "internalType": "string",
          "name": "metadataURI",
          "type": "string"
        },
        {
          "internalType": "bool",
          "name": "isSpecial",
          "type": "bool"
        }
      ],
      "stateMutability": "view",
      "type": "function"
    },
    {
      "inputs": [],
      "name": "renounceOwnership",
      "outputs": [],
      "stateMutability": "nonpayable",
      "type": "function"
    },
    {
      "inputs": [
        {
          "internalType": "address",
          "name": "from",
          "type": "address"
        },
        {
          "internalType": "address",
          "name": "to",
          "type": "address"
        },
        {
          "internalType": "uint256",
          "name": "tokenId",
          "type": "uint256"
        }
      ],
      "name": "safeTransferFrom",
      "outputs": [],
      "stateMutability": "nonpayable",
      "type": "function"
    },
    {
      "inputs": [
        {
          "internalType": "address",
          "name": "from",
          "type": "address"
        },
        {
          "internalType": "address",
          "name": "to",
          "type": "address"
        },
        {
          "internalType": "uint256",
          "name": "tokenId",
          "type": "uint256"
        },
        {
          "internalType": "bytes",
          "name": "data",
          "type": "bytes"
        }
      ],
      "name": "safeTransferFrom",
      "outputs": [],
      "stateMutability": "nonpayable",
      "type": "function"
    },
    {
      "inputs": [
        {
          "internalType": "address",
          "name": "operator",
          "type": "address"
        },
        {
          "internalType": "bool",
          "name": "approved",
          "type": "bool"
        }
      ],
      "name": "setApprovalForAll",
      "outputs": [],
      "stateMutability": "nonpayable",
      "type": "function"
    },
    {
      "inputs": [
        {
          "internalType": "string",
          "name": "_baseMetadataURI",
          "type": "string"
        }
      ],
      "name": "setBaseMetadataURI",
      "outputs": [],
      "stateMutability": "nonpayable",
      "type": "function"
    },
    {
      "inputs": [
        {
          "internalType": "address",
          "name": "_fanFuelToken",
          "type": "address"
        }
      ],
      "name": "setFanFuelTokenAddress",
      "outputs": [],
      "stateMutability": "nonpayable",
      "type": "function"
    },
    {
      "inputs": [
        {
          "internalType": "bytes4",
          "name": "interfaceId",
          "type": "bytes4"
        }
      ],
      "name": "supportsInterface",
      "outputs": [
        {
          "internalType": "bool",
          "name": "",
          "type": "bool"
        }
      ],
      "stateMutability": "view",
      "type": "function"
    },
    {
      "inputs": [],
      "name": "symbol",
      "outputs": [
        {
          "internalType": "string",
          "name": "",
          "type": "string"
        }
      ],
      "stateMutability": "view",
      "type": "function"
    },
    {
      "inputs": [
        {
          "internalType": "uint256",
          "name": "tokenId",
          "type": "uint256"
        }
      ],
      "name": "tokenURI",
      "outputs": [
        {
          "internalType": "string",
          "name": "",
          "type": "string"
        }
      ],
      "stateMutability": "view",
      "type": "function"
    },
    {
      "inputs": [],
      "name": "totalReactions",
      "outputs": [
        {
          "internalType": "uint256",
          "name": "",
          "type": "uint256"
        }
      ],
      "stateMutability": "view",
      "type": "function"
    },
    {
      "inputs": [
        {
          "internalType": "address",
          "name": "from",
          "type": "address"
        },
        {
          "internalType": "address",
          "name": "to",
          "type": "address"
        },
        {
          "internalType": "uint256",
          "name": "tokenId",
          "type": "uint256"
        }
      ],
      "name": "transferFrom",
      "outputs": [],
      "stateMutability": "nonpayable",
      "type": "function"
    },
    {
      "inputs": [
        {
          "internalType": "address",
          "name": "newOwner",
          "type": "address"
        }
      ],
      "name": "transferOwnership",
      "outputs": [],
      "stateMutability": "nonpayable",
      "type": "function"
    },
    {
      "inputs": [
        {
          "internalType": "enum ReactionNFT.ReactionType",
          "name": "reactionType",
          "type": "uint8"
        },
        {
          "internalType": "string",
          "name": "name",
          "type": "string"
        },
        {
          "internalType": "uint256",
          "name": "minAmount",
          "type": "uint256"
        },
        {
          "internalType": "uint256",
          "name": "tokenMultiplier",
          "type": "uint256"
        },
        {
          "internalType": "string",
          "name": "emoji",
          "type": "string"
        }
      ],
      "name": "updateReactionRarity",
      "outputs": [],
      "stateMutability": "nonpayable",
      "type": "function"
    }
  ],
  "bytecode": "0x60806040526001600a553480156200001657600080fd5b50604051620037393803806200373983398101604081905262000039916200060d565b816040518060400160405280601181526020017046616e4675656c205265616374696f6e7360781b8152506040518060400160405280600a815260200169119551530b54915050d560b21b815250816000908162000098919062000794565b506001620000a7828262000794565b5050506001600160a01b038116620000d957604051631e4fbdf760e01b81526000600482015260240160405180910390fd5b620000e481620005a5565b5060016008556010620000f8828262000794565b506040805160c081018252600460808201818152630436c61760e41b60a08401528252671bc16d674ec800006020808401919091526001838501528351808501909452908352630434c41560e41b83820152606082019290925260008052600c90915280517f13649b2456f1b42fef0f0040b3aaeabcd21a76a0f3f5defd4f583839455116e89081906200018d908262000794565b50602082015160018201556040820151600282015560608201516003820190620001b8908262000794565b50506040805160c081018252600460808201818152634669726560e01b60a08401528252674563918244f400006020808401919091526002838501528351808501909452908352634649524560e01b8382015260608201929092526001600052600c90915280519091507fd421a5181c571bba3f01190c922c3b2a896fc1d84e86c9f17ac10e67ebef8b5c90819062000252908262000794565b506020820151600182015560408201516002820155606082015160038201906200027d908262000794565b50506040805160c0810182526003608082018181526247656d60e81b60a08401528252678ac7230489e8000060208084019190915282840182905283518085019094529083526247454d60e81b8382015260608201929092526002600052600c90915280519091507f5d6016397a73f5e079297ac5a36fef17b4d9c3831618e63ab105738020ddd72090819062000315908262000794565b5060208201516001820155604082015160028201556060820151600382019062000340908262000794565b50506040805160c081018252600660808201818152655374726f6e6760d01b60a0840152825267d02ab486cedc00006020808401919091526004838501528351808501909452908352655354524f4e4760d01b8382015260608201929092526003600052600c90915280519091507fc0da782485e77ae272268ae0a3ff44c1552ecb60b3743924de17a815e0a3cfd7908190620003de908262000794565b5060208201516001820155604082015160028201556060820151600382019062000409908262000794565b50506040805160c08101825260066080820181815265131959d95b9960d21b60a0840152825268015af1d78b58c40000602080840191909152600583850152835180850190945290835265131151d1539160d21b8382015260608201929092526004600052600c90915280519091507f5b84bb9e0f5aa9cc45a8bb66468db5d4816d1e75ff86b5e1f1dd8d144dab8097908190620004a8908262000794565b50602082015160018201556040820151600282015560608201516003820190620004d3908262000794565b50506040805160c081018252600460808201818152634b696e6760e01b60a084015282526802b5e3af16b1880000602080840191909152600a838501528351808501909452908352634b494e4760e01b8382015260608201929092526005600052600c90915280519091507f2cd9ebf6ff19cdd7ffcc447d7c7d47b5991f5c7392a04512134e765802361fa69081906200056e908262000794565b5060208201516001820155604082015160028201556060820151600382019062000599908262000794565b50905050505062000860565b600780546001600160a01b038381166001600160a01b0319831681179093556040519116919082907f8be0079c531659141344cd1fd0a4f28419497f9722a3daafe3b4186f6b6457e090600090a35050565b634e487b7160e01b600052604160045260246000fd5b600080604083850312156200062157600080fd5b82516001600160a01b03811681146200063957600080fd5b602084810151919350906001600160401b03808211156200065957600080fd5b818601915086601f8301126200066e57600080fd5b815181811115620006835762000683620005f7565b604051601f8201601f19908116603f01168101908382118183101715620006ae57620006ae620005f7565b816040528281528986848701011115620006c757600080fd5b600093505b82841015620006eb5784840186015181850187015292850192620006cc565b60008684830101528096505050505050509250929050565b600181811c908216806200071857607f821691505b6020821081036200073957634e487b7160e01b600052602260045260246000fd5b50919050565b601f8211156200078f576000816000526020600020601f850160051c810160208610156200076a5750805b601f850160051c820191505b818110156200078b5782815560010162000776565b5050505b505050565b81516001600160401b03811115620007b057620007b0620005f7565b620007c881620007c1845462000703565b846200073f565b602080601f831160018114620008005760008415620007e75750858301515b600019600386901b1c1916600185901b1785556200078b565b600085815260208120601f198616915b82811015620008315788860151825594840194600190910190840162000810565b5085821015620008505787850151600019600388901b60f8161c191681555b5050505050600190811b01905550565b612ec980620008706000396000f3fe608060405234801561001057600080fd5b50600436106101fb5760003560e01c806370a082311161011a578063a001cf21116100ad578063c780d6af1161007c578063c780d6af1461045e578063c87b56dd1461047e578063c9780c5914610491578063e985e9c5146104a4578063f2fde38b146104b757600080fd5b8063a001cf2114610412578063a22cb46514610425578063b5cda39c14610438578063b88d4fde1461044b57600080fd5b80638c1360df116100e95780638c1360df146103d15780638da5cb5b146103f157806395d89b411461040257806395fd1a801461040a57600080fd5b806370a082311461037b57806370f808281461038e578063715018a6146103b65780637e518ec8146103be57600080fd5b806342842e0e116101925780635c975abb116101615780635c975abb146103285780635fd40412146103335780636352211e146103465780636cc7af621461035957600080fd5b806342842e0e146102e7578063433ba0f3146102fa5780635a6fecea1461030d5780635b2bd79e1461032057600080fd5b8063095ea7b3116101ce578063095ea7b31461028b5780630b22dd22146102a057806323b872dd146102b35780633fc11e7c146102c657600080fd5b806301ffc9a71461020057806304fb14211461022857806306fdde031461024b578063081812fc14610260575b600080fd5b61021361020e366004612488565b6104ca565b60405190151581526020015b60405180910390f35b61023b6102363660046124b9565b6104db565b60405161021f9493929190612524565b610253610613565b60405161021f9190612555565b61027361026e366004612568565b6106a5565b6040516001600160a01b03909116815260200161021f565b61029e610299366004612598565b6106ce565b005b600f54610273906001600160a01b031681565b61029e6102c13660046125c2565b6106dd565b6102d96102d43660046126aa565b61076d565b60405190815260200161021f565b61029e6102f53660046125c2565b610976565b6102d9610308366004612598565b610996565b6102d961031b366004612768565b6109c7565b610253610ee0565b60095460ff16610213565b61029e610341366004612840565b610f6e565b610273610354366004612568565b61100f565b61036c6103673660046124b9565b61101a565b60405161021f939291906128ae565b6102d96103893660046128e4565b6111b4565b6103a161039c366004612568565b6111fc565b60405161021f99989796959493929190612937565b61029e611478565b61029e6103cc3660046129cb565b61148c565b6103e46103df3660046129cb565b6114a0565b60405161021f9190612a00565b6007546001600160a01b0316610273565b610253611510565b6102d961151f565b6102d9610420366004612a44565b611535565b61029e610433366004612a89565b611560565b61029e6104463660046128e4565b61156b565b61029e610459366004612ac5565b6115eb565b61047161046c366004612568565b611603565b60405161021f9190612b41565b61025361048c366004612568565b611939565b6103e461049f3660046128e4565b611944565b6102136104b2366004612c1c565b6119ae565b61029e6104c53660046128e4565b6119dc565b60006104d582611a1a565b92915050565b600c602052600090815260409020805481906104f690612c4f565b80601f016020809104026020016040519081016040528092919081815260200182805461052290612c4f565b801561056f5780601f106105445761010080835404028352916020019161056f565b820191906000526020600020905b81548152906001019060200180831161055257829003601f168201915b50505050509080600101549080600201549080600301805461059090612c4f565b80601f01602080910402602001604051908101604052809291908181526020018280546105bc90612c4f565b80156106095780601f106105de57610100808354040283529160200191610609565b820191906000526020600020905b8154815290600101906020018083116105ec57829003601f168201915b5050505050905084565b60606000805461062290612c4f565b80601f016020809104026020016040519081016040528092919081815260200182805461064e90612c4f565b801561069b5780601f106106705761010080835404028352916020019161069b565b820191906000526020600020905b81548152906001019060200180831161067e57829003601f168201915b5050505050905090565b60006106b082611a3f565b506000828152600460205260409020546001600160a01b03166104d5565b6106d9828233611a78565b5050565b6001600160a01b03821661070c57604051633250574960e11b8152600060048201526024015b60405180910390fd5b6000610719838333611a85565b9050836001600160a01b0316816001600160a01b031614610767576040516364283d7b60e01b81526001600160a01b0380861660048301526024820184905282166044820152606401610703565b50505050565b6000610777611b7e565b600a80546000918261078883612c9f565b9190505590506107988782611bab565b6107a28184611bc5565b60408051610120810182526001600160a01b038916815260208101889052908101869052606081016005815260006020808301829052604080840189905242606085015260808401889052600160a0909401849052858352600b8252909120835181546001600160a01b0319166001600160a01b039091161781559083015190918201906108309082612d00565b50604082015160028201906108459082612d00565b50606082015160038201805460ff19166001836005811115610869576108696128ff565b02179055506080820151600482015560a0820151600582019061088c9082612d00565b5060c0820151600682015560e082015160078201906108ab9082612d00565b5061010091909101516008909101805460ff19169115159190911790556001600160a01b0387166000908152600d602090815260408083208054600181018255908452919092200182905551600e90610905908890612dc0565b908152604051908190036020908101822080546001810182556000918252919020018290556001600160a01b0388169082907f607697a81b7a8d206cb50f53a90da084e5597e87fd7d64096abbfd12d364b29990610964908890612555565b60405180910390a39695505050505050565b610991838383604051806020016040528060008152506115eb565b505050565b600d60205281600052604060002081815481106109b257600080fd5b90600052602060002001600091509150505481565b60006109d1611c15565b6109d9611c3f565b600f546001600160a01b03163314806109fc57506007546001600160a01b031633145b610a3e5760405162461bcd60e51b81526020600482015260136024820152722ab730baba3437b934bd32b21036b4b73a32b960691b6044820152606401610703565b6001600160a01b038816610a8a5760405162461bcd60e51b8152602060048201526013602482015272496e76616c69642066616e206164647265737360681b6044820152606401610703565b6000875111610ad05760405162461bcd60e51b8152602060048201526012602482015271125b9d985b1a5908185d1a1b195d1948125160721b6044820152606401610703565b6000600c6000876005811115610ae857610ae86128ff565b6005811115610af957610af96128ff565b8152602001908152602001600020604051806080016040529081600082018054610b2290612c4f565b80601f0160208091040260200160405190810160405280929190818152602001828054610b4e90612c4f565b8015610b9b5780601f10610b7057610100808354040283529160200191610b9b565b820191906000526020600020905b815481529060010190602001808311610b7e57829003601f168201915b505050505081526020016001820154815260200160028201548152602001600382018054610bc890612c4f565b80601f0160208091040260200160405190810160405280929190818152602001828054610bf490612c4f565b8015610c415780601f10610c1657610100808354040283529160200191610c41565b820191906000526020600020905b815481529060010190602001808311610c2457829003601f168201915b50505050508152505090508060200151851015610cb15760405162461bcd60e51b815260206004820152602860248201527f537570706f727420616d6f756e7420746f6f206c6f7720666f72207265616374604482015267696f6e207479706560c01b6064820152608401610703565b600a805460009182610cc283612c9f565b919050559050610cd28a82611bab565b610cdc8185611bc5565b6040518061012001604052808b6001600160a01b031681526020018a8152602001898152602001886005811115610d1557610d156128ff565b81526020808201899052604080830189905242606084015260808301889052600060a0909301839052848352600b8252909120825181546001600160a01b0319166001600160a01b03909116178155908201516001820190610d779082612d00565b5060408201516002820190610d8c9082612d00565b50606082015160038201805460ff19166001836005811115610db057610db06128ff565b02179055506080820151600482015560a08201516005820190610dd39082612d00565b5060c0820151600682015560e08201516007820190610df29082612d00565b5061010091909101516008909101805460ff19169115159190911790556001600160a01b038a166000908152600d602090815260408083208054600181018255908452919092200182905551600e90610e4c908b90612dc0565b90815260405190819003602090810182208054600181018255600091825291902001829055610e7c908a90612dc0565b60405180910390208a6001600160a01b0316827f3920aa317367e04033cafdb013281c7fad8206bc52fdb5d89e50195b16eb7da78a8a604051610ec0929190612ddc565b60405180910390a4915050610ed56001600855565b979650505050505050565b60108054610eed90612c4f565b80601f0160208091040260200160405190810160405280929190818152602001828054610f1990612c4f565b8015610f665780601f10610f3b57610100808354040283529160200191610f66565b820191906000526020600020905b815481529060010190602001808311610f4957829003601f168201915b505050505081565b610f76611b7e565b604051806080016040528085815260200184815260200183815260200182815250600c6000876005811115610fad57610fad6128ff565b6005811115610fbe57610fbe6128ff565b8152602081019190915260400160002081518190610fdc9082612d00565b506020820151600182015560408201516002820155606082015160038201906110059082612d00565b5050505050505050565b60006104d582611a3f565b606080600080600c6000866005811115611036576110366128ff565b6005811115611047576110476128ff565b815260200190815260200160002060405180608001604052908160008201805461107090612c4f565b80601f016020809104026020016040519081016040528092919081815260200182805461109c90612c4f565b80156110e95780601f106110be576101008083540402835291602001916110e9565b820191906000526020600020905b8154815290600101906020018083116110cc57829003601f168201915b50505050508152602001600182015481526020016002820154815260200160038201805461111690612c4f565b80601f016020809104026020016040519081016040528092919081815260200182805461114290612c4f565b801561118f5780601f106111645761010080835404028352916020019161118f565b820191906000526020600020905b81548152906001019060200180831161117257829003601f168201915b5050509190925250508151606083015160209093015190989297509550909350505050565b60006001600160a01b0382166111e0576040516322718ad960e21b815260006004820152602401610703565b506001600160a01b031660009081526003602052604090205490565b600b60205260009081526040902080546001820180546001600160a01b03909216929161122890612c4f565b80601f016020809104026020016040519081016040528092919081815260200182805461125490612c4f565b80156112a15780601f10611276576101008083540402835291602001916112a1565b820191906000526020600020905b81548152906001019060200180831161128457829003601f168201915b5050505050908060020180546112b690612c4f565b80601f01602080910402602001604051908101604052809291908181526020018280546112e290612c4f565b801561132f5780601f106113045761010080835404028352916020019161132f565b820191906000526020600020905b81548152906001019060200180831161131257829003601f168201915b5050505060038301546004840154600585018054949560ff909316949193509061135890612c4f565b80601f016020809104026020016040519081016040528092919081815260200182805461138490612c4f565b80156113d15780601f106113a6576101008083540402835291602001916113d1565b820191906000526020600020905b8154815290600101906020018083116113b457829003601f168201915b5050505050908060060154908060070180546113ec90612c4f565b80601f016020809104026020016040519081016040528092919081815260200182805461141890612c4f565b80156114655780601f1061143a57610100808354040283529160200191611465565b820191906000526020600020905b81548152906001019060200180831161144857829003601f168201915b5050506008909301549192505060ff1689565b611480611b7e565b61148a6000611c63565b565b611494611b7e565b60106106d98282612d00565b6060600e826040516114b29190612dc0565b908152604080519182900360209081018320805480830285018301909352828452919083018282801561150457602002820191906000526020600020905b8154815260200190600101908083116114f0575b50505050509050919050565b60606001805461062290612c4f565b60006001600a546115309190612df7565b905090565b8151602081840181018051600e8252928201918501919091209190528054829081106109b257600080fd5b6106d9338383611cb5565b611573611b7e565b6001600160a01b0381166115c95760405162461bcd60e51b815260206004820152601c60248201527f496e76616c69642046616e4675656c546f6b656e2061646472657373000000006044820152606401610703565b600f80546001600160a01b0319166001600160a01b0392909216919091179055565b6115f68484846106dd565b6107673385858585611d54565b61160b61240a565b6000828152600260205260409020546001600160a01b03166116665760405162461bcd60e51b8152602060048201526014602482015273151bdad95b88191bd95cc81b9bdd08195e1a5cdd60621b6044820152606401610703565b6000828152600b60209081526040918290208251610120810190935280546001600160a01b0316835260018101805491928401916116a390612c4f565b80601f01602080910402602001604051908101604052809291908181526020018280546116cf90612c4f565b801561171c5780601f106116f15761010080835404028352916020019161171c565b820191906000526020600020905b8154815290600101906020018083116116ff57829003601f168201915b5050505050815260200160028201805461173590612c4f565b80601f016020809104026020016040519081016040528092919081815260200182805461176190612c4f565b80156117ae5780601f10611783576101008083540402835291602001916117ae565b820191906000526020600020905b81548152906001019060200180831161179157829003601f168201915b5050509183525050600382015460209091019060ff1660058111156117d5576117d56128ff565b60058111156117e6576117e66128ff565b81526020016004820154815260200160058201805461180490612c4f565b80601f016020809104026020016040519081016040528092919081815260200182805461183090612c4f565b801561187d5780601f106118525761010080835404028352916020019161187d565b820191906000526020600020905b81548152906001019060200180831161186057829003601f168201915b50505050508152602001600682015481526020016007820180546118a090612c4f565b80601f01602080910402602001604051908101604052809291908181526020018280546118cc90612c4f565b80156119195780601f106118ee57610100808354040283529160200191611919565b820191906000526020600020905b8154815290600101906020018083116118fc57829003601f168201915b50505091835250506008919091015460ff16151560209091015292915050565b60606104d582611e7f565b6001600160a01b0381166000908152600d602090815260409182902080548351818402810184019094528084526060939283018282801561150457602002820191906000526020600020908154815260200190600101908083116114f05750505050509050919050565b6001600160a01b03918216600090815260056020908152604080832093909416825291909152205460ff1690565b6119e4611b7e565b6001600160a01b038116611a0e57604051631e4fbdf760e01b815260006004820152602401610703565b611a1781611c63565b50565b60006001600160e01b03198216632483248360e11b14806104d557506104d582611f90565b6000818152600260205260408120546001600160a01b0316806104d557604051637e27328960e01b815260048101849052602401610703565b6109918383836001611fe0565b6000828152600260205260408120546001600160a01b0390811690831615611ab257611ab28184866120e6565b6001600160a01b03811615611af057611acf600085600080611fe0565b6001600160a01b038116600090815260036020526040902080546000190190555b6001600160a01b03851615611b1f576001600160a01b0385166000908152600360205260409020805460010190555b60008481526002602052604080822080546001600160a01b0319166001600160a01b0389811691821790925591518793918516917fddf252ad1be2c89b69c2b068fc378daa952ba7f163c4a11628f55a4df523b3ef91a4949350505050565b6007546001600160a01b0316331461148a5760405163118cdaa760e01b8152336004820152602401610703565b6106d982826040518060200160405280600081525061214a565b6000828152600660205260409020611bdd8282612d00565b506040518281527ff8e1a15aba9398e019f0b49df1a4fde98ee17ae345cb5f6b5e2c27f5033e8ce79060200160405180910390a15050565b600260085403611c3857604051633ee5aeb560e01b815260040160405180910390fd5b6002600855565b60095460ff161561148a5760405163d93c066560e01b815260040160405180910390fd5b600780546001600160a01b038381166001600160a01b0319831681179093556040519116919082907f8be0079c531659141344cd1fd0a4f28419497f9722a3daafe3b4186f6b6457e090600090a35050565b6001600160a01b038216611ce757604051630b61174360e31b81526001600160a01b0383166004820152602401610703565b6001600160a01b03838116600081815260056020908152604080832094871680845294825291829020805460ff191686151590811790915591519182527f17307eab39ab6107e8899845ad3d59bd9653f200f220920489ca2b5937696c31910160405180910390a3505050565b6001600160a01b0383163b15611e7857604051630a85bd0160e11b81526001600160a01b0384169063150b7a0290611d96908890889087908790600401612e0a565b6020604051808303816000875af1925050508015611dd1575060408051601f3d908101601f19168201909252611dce91810190612e47565b60015b611e3a573d808015611dff576040519150601f19603f3d011682016040523d82523d6000602084013e611e04565b606091505b508051600003611e3257604051633250574960e11b81526001600160a01b0385166004820152602401610703565b805160208201fd5b6001600160e01b03198116630a85bd0160e11b14611e7657604051633250574960e11b81526001600160a01b0385166004820152602401610703565b505b5050505050565b6060611e8a82611a3f565b5060008281526006602052604081208054611ea490612c4f565b80601f0160208091040260200160405190810160405280929190818152602001828054611ed090612c4f565b8015611f1d5780601f10611ef257610100808354040283529160200191611f1d565b820191906000526020600020905b815481529060010190602001808311611f0057829003601f168201915b505050505090506000611f3b60408051602081019091526000815290565b90508051600003611f4d575092915050565b815115611f7f578082604051602001611f67929190612e64565b60405160208183030381529060405292505050919050565b611f8884612162565b949350505050565b60006001600160e01b031982166380ac58cd60e01b1480611fc157506001600160e01b03198216635b5e139f60e01b145b806104d557506301ffc9a760e01b6001600160e01b03198316146104d5565b8080611ff457506001600160a01b03821615155b156120b657600061200484611a3f565b90506001600160a01b038316158015906120305750826001600160a01b0316816001600160a01b031614155b8015612043575061204181846119ae565b155b1561206c5760405163a9fbf51f60e01b81526001600160a01b0384166004820152602401610703565b81156120b45783856001600160a01b0316826001600160a01b03167f8c5be1e5ebec7d5bd14f71427d1e84f3dd0314c0f7b2291e5b200ac8c7c3b92560405160405180910390a45b505b5050600090815260046020526040902080546001600160a01b0319166001600160a01b0392909216919091179055565b6120f18383836121d7565b610991576001600160a01b03831661211f57604051637e27328960e01b815260048101829052602401610703565b60405163177e802f60e01b81526001600160a01b038316600482015260248101829052604401610703565b612154838361223a565b610991336000858585611d54565b606061216d82611a3f565b50600061218560408051602081019091526000815290565b905060008151116121a557604051806020016040528060008152506121d0565b806121af8461229f565b6040516020016121c0929190612e64565b6040516020818303038152906040525b9392505050565b60006001600160a01b03831615801590611f885750826001600160a01b0316846001600160a01b03161480612211575061221184846119ae565b80611f885750506000908152600460205260409020546001600160a01b03908116911614919050565b6001600160a01b03821661226457604051633250574960e11b815260006004820152602401610703565b600061227283836000611a85565b90506001600160a01b03811615610991576040516339e3563760e11b815260006004820152602401610703565b606060006122ac83612332565b600101905060008167ffffffffffffffff8111156122cc576122cc6125fe565b6040519080825280601f01601f1916602001820160405280156122f6576020820181803683370190505b5090508181016020015b600019016f181899199a1a9b1b9c1cb0b131b232b360811b600a86061a8153600a850494508461230057509392505050565b60008072184f03e93ff9f4daa797ed6e38ed64bf6a1f0160401b83106123715772184f03e93ff9f4daa797ed6e38ed64bf6a1f0160401b830492506040015b6d04ee2d6d415b85acef8100000000831061239d576d04ee2d6d415b85acef8100000000830492506020015b662386f26fc1000083106123bb57662386f26fc10000830492506010015b6305f5e10083106123d3576305f5e100830492506008015b61271083106123e757612710830492506004015b606483106123f9576064830492506002015b600a83106104d55760010192915050565b60405180610120016040528060006001600160a01b03168152602001606081526020016060815260200160006005811115612447576124476128ff565b8152602001600081526020016060815260200160008152602001606081526020016000151581525090565b6001600160e01b031981168114611a1757600080fd5b60006020828403121561249a57600080fd5b81356121d081612472565b8035600681106124b457600080fd5b919050565b6000602082840312156124cb57600080fd5b6121d0826124a5565b60005b838110156124ef5781810151838201526020016124d7565b50506000910152565b600081518084526125108160208601602086016124d4565b601f01601f19169290920160200192915050565b60808152600061253760808301876124f8565b8560208401528460408401528281036060840152610ed581856124f8565b6020815260006121d060208301846124f8565b60006020828403121561257a57600080fd5b5035919050565b80356001600160a01b03811681146124b457600080fd5b600080604083850312156125ab57600080fd5b6125b483612581565b946020939093013593505050565b6000806000606084860312156125d757600080fd5b6125e084612581565b92506125ee60208501612581565b9150604084013590509250925092565b634e487b7160e01b600052604160045260246000fd5b600067ffffffffffffffff8084111561262f5761262f6125fe565b604051601f8501601f19908116603f01168101908282118183101715612657576126576125fe565b8160405280935085815286868601111561267057600080fd5b858560208301376000602087830101525050509392505050565b600082601f83011261269b57600080fd5b6121d083833560208501612614565b600080600080600060a086880312156126c257600080fd5b6126cb86612581565b9450602086013567ffffffffffffffff808211156126e857600080fd5b6126f489838a0161268a565b9550604088013591508082111561270a57600080fd5b61271689838a0161268a565b9450606088013591508082111561272c57600080fd5b61273889838a0161268a565b9350608088013591508082111561274e57600080fd5b5061275b8882890161268a565b9150509295509295909350565b600080600080600080600060e0888a03121561278357600080fd5b61278c88612581565b9650602088013567ffffffffffffffff808211156127a957600080fd5b6127b58b838c0161268a565b975060408a01359150808211156127cb57600080fd5b6127d78b838c0161268a565b96506127e560608b016124a5565b955060808a0135945060a08a013591508082111561280257600080fd5b61280e8b838c0161268a565b935060c08a013591508082111561282457600080fd5b506128318a828b0161268a565b91505092959891949750929550565b600080600080600060a0868803121561285857600080fd5b612861866124a5565b9450602086013567ffffffffffffffff8082111561287e57600080fd5b61288a89838a0161268a565b95506040880135945060608801359350608088013591508082111561274e57600080fd5b6060815260006128c160608301866124f8565b82810360208401526128d381866124f8565b915050826040830152949350505050565b6000602082840312156128f657600080fd5b6121d082612581565b634e487b7160e01b600052602160045260246000fd5b6006811061293357634e487b7160e01b600052602160045260246000fd5b9052565b6001600160a01b038a1681526101206020820181905260009061295c8382018c6124f8565b90508281036040840152612970818b6124f8565b905061297f606084018a612915565b87608084015282810360a084015261299781886124f8565b90508560c084015282810360e08401526129b181866124f8565b9150508215156101008301529a9950505050505050505050565b6000602082840312156129dd57600080fd5b813567ffffffffffffffff8111156129f457600080fd5b611f888482850161268a565b6020808252825182820181905260009190848201906040850190845b81811015612a3857835183529284019291840191600101612a1c565b50909695505050505050565b60008060408385031215612a5757600080fd5b823567ffffffffffffffff811115612a6e57600080fd5b612a7a8582860161268a565b95602094909401359450505050565b60008060408385031215612a9c57600080fd5b612aa583612581565b915060208301358015158114612aba57600080fd5b809150509250929050565b60008060008060808587031215612adb57600080fd5b612ae485612581565b9350612af260208601612581565b925060408501359150606085013567ffffffffffffffff811115612b1557600080fd5b8501601f81018713612b2657600080fd5b612b3587823560208401612614565b91505092959194509250565b60208152612b5b6020820183516001600160a01b03169052565b60006020830151610120806040850152612b796101408501836124f8565b91506040850151601f1980868503016060870152612b9784836124f8565b935060608701519150612bad6080870183612915565b608087015160a087015260a08701519150808685030160c0870152612bd284836124f8565b935060c087015160e087015260e08701519150610100818786030181880152612bfb85846124f8565b94508088015192505050612c128286018215159052565b5090949350505050565b60008060408385031215612c2f57600080fd5b612c3883612581565b9150612c4660208401612581565b90509250929050565b600181811c90821680612c6357607f821691505b602082108103612c8357634e487b7160e01b600052602260045260246000fd5b50919050565b634e487b7160e01b600052601160045260246000fd5b600060018201612cb157612cb1612c89565b5060010190565b601f821115610991576000816000526020600020601f850160051c81016020861015612ce15750805b601f850160051c820191505b81811015611e7657828155600101612ced565b815167ffffffffffffffff811115612d1a57612d1a6125fe565b612d2e81612d288454612c4f565b84612cb8565b602080601f831160018114612d635760008415612d4b5750858301515b600019600386901b1c1916600185901b178555611e76565b600085815260208120601f198616915b82811015612d9257888601518255948401946001909101908401612d73565b5085821015612db05787850151600019600388901b60f8161c191681555b5050505050600190811b01905550565b60008251612dd28184602087016124d4565b9190910192915050565b60408101612dea8285612915565b8260208301529392505050565b818103818111156104d5576104d5612c89565b6001600160a01b0385811682528416602082015260408101839052608060608201819052600090612e3d908301846124f8565b9695505050505050565b600060208284031215612e5957600080fd5b81516121d081612472565b60008351612e768184602088016124d4565b835190830190612e8a8183602088016124d4565b0194935050505056fea264697066735822122069295bf65f23e4d0c6726ecdbeee97e502704171416c4b4b3f7dc0c9eb4d8fc164736f6c63430008180033",
  "linkReferences": {},
  "deployedLinkReferences": {}
}