{
  "_format": "hh-sol-artifact-1",
  "contractName": "FanFuelFlowNFT",
  "sourceName": "contracts/FanFuelFlowNFT.sol",
  "abi": [
    {
      "inputs": [],
      "stateMutability": "nonpayable",
      "type": "constructor"
    },
    {
      "inputs": [
        {
          "internalType": "address",
          "name": "sender",
          "type": "address"
        },
        {
          "internalType": "uint256",
          "name": "tokenId",
          "type": "uint256"
        },
        {
          "internalType": "address",
          "name": "owner",
          "type": "address"
        }
      ],
      "name": "ERC721IncorrectOwner",
      "type": "error"
    },
    {
      "inputs": [
        {
          "internalType": "address",
          "name": "operator",
          "type": "address"
        },
        {
          "internalType": "uint256",
          "name": "tokenId",
          "type": "uint256"
        }
      ],
      "name": "ERC721InsufficientApproval",
      "type": "error"
    },
    {
      "inputs": [
        {
          "internalType": "address",
          "name": "approver",
          "type": "address"
        }
      ],
      "name": "ERC721InvalidApprover",
      "type": "error"
    },
    {
      "inputs": [
        {
          "internalType": "address",
          "name": "operator",
          "type": "address"
        }
      ],
      "name": "ERC721InvalidOperator",
      "type": "error"
    },
    {
      "inputs": [
        {
          "internalType": "address",
          "name": "owner",
          "type": "address"
        }
      ],
      "name": "ERC721InvalidOwner",
      "type": "error"
    },
    {
      "inputs": [
        {
          "internalType": "address",
          "name": "receiver",
          "type": "address"
        }
      ],
      "name": "ERC721InvalidReceiver",
      "type": "error"
    },
    {
      "inputs": [
        {
          "internalType": "address",
          "name": "sender",
          "type": "address"
        }
      ],
      "name": "ERC721InvalidSender",
      "type": "error"
    },
    {
      "inputs": [
        {
          "internalType": "uint256",
          "name": "tokenId",
          "type": "uint256"
        }
      ],
      "name": "ERC721NonexistentToken",
      "type": "error"
    },
    {
      "inputs": [
        {
          "internalType": "address",
          "name": "owner",
          "type": "address"
        }
      ],
      "name": "OwnableInvalidOwner",
      "type": "error"
    },
    {
      "inputs": [
        {
          "internalType": "address",
          "name": "account",
          "type": "address"
        }
      ],
      "name": "OwnableUnauthorizedAccount",
      "type": "error"
    },
    {
      "inputs": [],
      "name": "ReentrancyGuardReentrantCall",
      "type": "error"
    },
    {
      "anonymous": false,
      "inputs": [
        {
          "indexed": true,
          "internalType": "address",
          "name": "owner",
          "type": "address"
        },
        {
          "indexed": true,
          "internalType": "address",
          "name": "approved",
          "type": "address"
        },
        {
          "indexed": true,
          "internalType": "uint256",
          "name": "tokenId",
          "type": "uint256"
        }
      ],
      "name": "Approval",
      "type": "event"
    },
    {
      "anonymous": false,
      "inputs": [
        {
          "indexed": true,
          "internalType": "address",
          "name": "owner",
          "type": "address"
        },
        {
          "indexed": true,
          "internalType": "address",
          "name": "operator",
          "type": "address"
        },
        {
          "indexed": false,
          "internalType": "bool",
          "name": "approved",
          "type": "bool"
        }
      ],
      "name": "ApprovalForAll",
      "type": "event"
    },
    {
      "anonymous": false,
      "inputs": [
        {
          "indexed": true,
          "internalType": "address",
          "name": "previousOwner",
          "type": "address"
        },
        {
          "indexed": true,
          "internalType": "address",
          "name": "newOwner",
          "type": "address"
        }
      ],
      "name": "OwnershipTransferred",
      "type": "event"
    },
    {
      "anonymous": false,
      "inputs": [
        {
          "indexed": true,
          "internalType": "uint256",
          "name": "tokenId",
          "type": "uint256"
        },
        {
          "indexed": true,
          "internalType": "address",
          "name": "recipient",
          "type": "address"
        },
        {
          "indexed": false,
          "internalType": "string",
          "name": "athleteId",
          "type": "string"
        },
        {
          "indexed": false,
          "internalType": "string",
          "name": "reactionType",
          "type": "string"
        }
      ],
      "name": "ReactionNFTMinted",
      "type": "event"
    },
    {
      "anonymous": false,
      "inputs": [
        {
          "indexed": true,
          "internalType": "address",
          "name": "from",
          "type": "address"
        },
        {
          "indexed": true,
          "internalType": "address",
          "name": "to",
          "type": "address"
        },
        {
          "indexed": true,
          "internalType": "uint256",
          "name": "tokenId",
          "type": "uint256"
        }
      ],
      "name": "Transfer",
      "type": "event"
    },
    {
      "inputs": [
        {
          "internalType": "address",
          "name": "to",
          "type": "address"
        },
        {
          "internalType": "uint256",
          "name": "tokenId",
          "type": "uint256"
        }
      ],
      "name": "approve",
      "outputs": [],
      "stateMutability": "nonpayable",
      "type": "function"
    },
    {
      "inputs": [
        {
          "internalType": "address",
          "name": "owner",
          "type": "address"
        }
      ],
      "name": "balanceOf",
      "outputs": [
        {
          "internalType": "uint256",
          "name": "",
          "type": "uint256"
        }
      ],
      "stateMutability": "view",
      "type": "function"
    },
    {
      "inputs": [
        {
          "internalType": "uint256",
          "name": "tokenId",
          "type": "uint256"
        }
      ],
      "name": "getApproved",
      "outputs": [
        {
          "internalType": "address",
          "name": "",
          "type": "address"
        }
      ],
      "stateMutability": "view",
      "type": "function"
    },
    {
      "inputs": [
        {
          "internalType": "string",
          "name": "reactionType",
          "type": "string"
        }
      ],
      "name": "getReactionCost",
      "outputs": [
        {
          "internalType": "uint256",
          "name": "",
          "type": "uint256"
        }
      ],
      "stateMutability": "view",
      "type": "function"
    },
    {
      "inputs": [
        {
          "internalType": "uint256",
          "name": "tokenId",
          "type": "uint256"
        }
      ],
      "name": "getReactionData",
      "outputs": [
        {
          "components": [
            {
              "internalType": "string",
              "name": "athleteId",
              "type": "string"
            },
            {
              "internalType": "string",
              "name": "athleteName",
              "type": "string"
            },
            {
              "internalType": "string",
              "name": "reactionType",
              "type": "string"
            },
            {
              "internalType": "uint256",
              "name": "supportAmount",
              "type": "uint256"
            },
            {
              "internalType": "string",
              "name": "commentary",
              "type": "string"
            },
            {
              "internalType": "uint256",
              "name": "timestamp",
              "type": "uint256"
            },
            {
              "internalType": "string",
              "name": "rarity",
              "type": "string"
            }
          ],
          "internalType": "struct FanFuelFlowNFT.ReactionData",
          "name": "",
          "type": "tuple"
        }
      ],
      "stateMutability": "view",
      "type": "function"
    },
    {
      "inputs": [
        {
          "internalType": "address",
          "name": "owner",
          "type": "address"
        },
        {
          "internalType": "address",
          "name": "operator",
          "type": "address"
        }
      ],
      "name": "isApprovedForAll",
      "outputs": [
        {
          "internalType": "bool",
          "name": "",
          "type": "bool"
        }
      ],
      "stateMutability": "view",
      "type": "function"
    },
    {
      "inputs": [
        {
          "internalType": "address",
          "name": "to",
          "type": "address"
        },
        {
          "internalType": "string",
          "name": "athleteId",
          "type": "string"
        },
        {
          "internalType": "string",
          "name": "athleteName",
          "type": "string"
        },
        {
          "internalType": "string",
          "name": "reactionType",
          "type": "string"
        },
        {
          "internalType": "uint256",
          "name": "supportAmount",
          "type": "uint256"
        },
        {
          "internalType": "string",
          "name": "commentary",
          "type": "string"
        },
        {
          "internalType": "string",
          "name": "rarity",
          "type": "string"
        }
      ],
      "name": "mintReactionNFT",
      "outputs": [],
      "stateMutability": "payable",
      "type": "function"
    },
    {
      "inputs": [],
      "name": "name",
      "outputs": [
        {
          "internalType": "string",
          "name": "",
          "type": "string"
        }
      ],
      "stateMutability": "view",
      "type": "function"
    },
    {
      "inputs": [],
      "name": "owner",
      "outputs": [
        {
          "internalType": "address",
          "name": "",
          "type": "address"
        }
      ],
      "stateMutability": "view",
      "type": "function"
    },
    {
      "inputs": [
        {
          "internalType": "uint256",
          "name": "tokenId",
          "type": "uint256"
        }
      ],
      "name": "ownerOf",
      "outputs": [
        {
          "internalType": "address",
          "name": "",
          "type": "address"
        }
      ],
      "stateMutability": "view",
      "type": "function"
    },
    {
      "inputs": [
        {
          "internalType": "string",
          "name": "",
          "type": "string"
        }
      ],
      "name": "reactionCosts",
      "outputs": [
        {
          "internalType": "uint256",
          "name": "",
          "type": "uint256"
        }
      ],
      "stateMutability": "view",
      "type": "function"
    },
    {
      "inputs": [
        {
          "internalType": "uint256",
          "name": "",
          "type": "uint256"
        }
      ],
      "name": "reactions",
      "outputs": [
        {
          "internalType": "string",
          "name": "athleteId",
          "type": "string"
        },
        {
          "internalType": "string",
          "name": "athleteName",
          "type": "string"
        },
        {
          "internalType": "string",
          "name": "reactionType",
          "type": "string"
        },
        {
          "internalType": "uint256",
          "name": "supportAmount",
          "type": "uint256"
        },
        {
          "internalType": "string",
          "name": "commentary",
          "type": "string"
        },
        {
          "internalType": "uint256",
          "name": "timestamp",
          "type": "uint256"
        },
        {
          "internalType": "string",
          "name": "rarity",
          "type": "string"
        }
      ],
      "stateMutability": "view",
      "type": "function"
    },
    {
      "inputs": [],
      "name": "renounceOwnership",
      "outputs": [],
      "stateMutability": "nonpayable",
      "type": "function"
    },
    {
      "inputs": [
        {
          "internalType": "address",
          "name": "from",
          "type": "address"
        },
        {
          "internalType": "address",
          "name": "to",
          "type": "address"
        },
        {
          "internalType": "uint256",
          "name": "tokenId",
          "type": "uint256"
        }
      ],
      "name": "safeTransferFrom",
      "outputs": [],
      "stateMutability": "nonpayable",
      "type": "function"
    },
    {
      "inputs": [
        {
          "internalType": "address",
          "name": "from",
          "type": "address"
        },
        {
          "internalType": "address",
          "name": "to",
          "type": "address"
        },
        {
          "internalType": "uint256",
          "name": "tokenId",
          "type": "uint256"
        },
        {
          "internalType": "bytes",
          "name": "data",
          "type": "bytes"
        }
      ],
      "name": "safeTransferFrom",
      "outputs": [],
      "stateMutability": "nonpayable",
      "type": "function"
    },
    {
      "inputs": [
        {
          "internalType": "address",
          "name": "operator",
          "type": "address"
        },
        {
          "internalType": "bool",
          "name": "approved",
          "type": "bool"
        }
      ],
      "name": "setApprovalForAll",
      "outputs": [],
      "stateMutability": "nonpayable",
      "type": "function"
    },
    {
      "inputs": [
        {
          "internalType": "bytes4",
          "name": "interfaceId",
          "type": "bytes4"
        }
      ],
      "name": "supportsInterface",
      "outputs": [
        {
          "internalType": "bool",
          "name": "",
          "type": "bool"
        }
      ],
      "stateMutability": "view",
      "type": "function"
    },
    {
      "inputs": [],
      "name": "symbol",
      "outputs": [
        {
          "internalType": "string",
          "name": "",
          "type": "string"
        }
      ],
      "stateMutability": "view",
      "type": "function"
    },
    {
      "inputs": [
        {
          "internalType": "uint256",
          "name": "tokenId",
          "type": "uint256"
        }
      ],
      "name": "tokenURI",
      "outputs": [
        {
          "internalType": "string",
          "name": "",
          "type": "string"
        }
      ],
      "stateMutability": "view",
      "type": "function"
    },
    {
      "inputs": [],
      "name": "totalSupply",
      "outputs": [
        {
          "internalType": "uint256",
          "name": "",
          "type": "uint256"
        }
      ],
      "stateMutability": "view",
      "type": "function"
    },
    {
      "inputs": [
        {
          "internalType": "address",
          "name": "from",
          "type": "address"
        },
        {
          "internalType": "address",
          "name": "to",
          "type": "address"
        },
        {
          "internalType": "uint256",
          "name": "tokenId",
          "type": "uint256"
        }
      ],
      "name": "transferFrom",
      "outputs": [],
      "stateMutability": "nonpayable",
      "type": "function"
    },
    {
      "inputs": [
        {
          "internalType": "address",
          "name": "newOwner",
          "type": "address"
        }
      ],
      "name": "transferOwnership",
      "outputs": [],
      "stateMutability": "nonpayable",
      "type": "function"
    },
    {
      "inputs": [
        {
          "internalType": "string",
          "name": "reactionType",
          "type": "string"
        },
        {
          "internalType": "uint256",
          "name": "newCost",
          "type": "uint256"
        }
      ],
      "name": "updateReactionCost",
      "outputs": [],
      "stateMutability": "nonpayable",
      "type": "function"
    },
    {
      "inputs": [],
      "name": "withdraw",
      "outputs": [],
      "stateMutability": "nonpayable",
      "type": "function"
    }
  ],
  "bytecode": "0x60806040523480156200001157600080fd5b50336040518060400160405280601581526020017f46616e4675656c205265616374696f6e204e465473000000000000000000000081525060405180604001604052806005815260200164119193919560da1b8152508160009081620000789190620002ba565b506001620000878282620002ba565b5050506001600160a01b038116620000b957604051631e4fbdf760e01b81526000600482015260240160405180910390fd5b620000c481620001c1565b50600160075560408051630636c61760e41b8152600a600480830182905283519283900360249081018420662386f26fc100009055636669726560e01b8452838201839052845193849003810184206658d15e1762800090556267656d60e81b845260038401839052845193849003602301842066b1a2bc2ec500009055657374726f6e6760d01b845260068085018490528551948590036026908101862067010a741a462780009055651b1959d95b9960d21b86529085018490528551948590030184206701bc16d674ec80009055636b696e6760e01b84529083019190915291519081900390910190206703782dace9d90000905562000386565b600680546001600160a01b038381166001600160a01b0319831681179093556040519116919082907f8be0079c531659141344cd1fd0a4f28419497f9722a3daafe3b4186f6b6457e090600090a35050565b634e487b7160e01b600052604160045260246000fd5b600181811c908216806200023e57607f821691505b6020821081036200025f57634e487b7160e01b600052602260045260246000fd5b50919050565b601f821115620002b5576000816000526020600020601f850160051c81016020861015620002905750805b601f850160051c820191505b81811015620002b1578281556001016200029c565b5050505b505050565b81516001600160401b03811115620002d657620002d662000213565b620002ee81620002e7845462000229565b8462000265565b602080601f8311600181146200032657600084156200030d5750858301515b600019600386901b1c1916600185901b178555620002b1565b600085815260208120601f198616915b82811015620003575788860151825594840194600190910190840162000336565b5085821015620003765787850151600019600388901b60f8161c191681555b5050505050600190811b01905550565b61218480620003966000396000f3fe60806040526004361061014b5760003560e01c806370a08231116100b6578063af3734661161006f578063af373466146103bb578063b88d4fde146103db578063c780d6af146103fb578063c87b56dd14610428578063e985e9c514610448578063f2fde38b1461046857600080fd5b806370a082311461030057806370f8082814610320578063715018a6146103535780638da5cb5b1461036857806395d89b4114610386578063a22cb4651461039b57600080fd5b80633ccfd60b116101085780633ccfd60b146102405780633f867caf1461025557806342842e0e1461027557806352cd327d146102955780636352211e146102a857806369dabc5f146102c857600080fd5b806301ffc9a71461015057806306fdde0314610185578063081812fc146101a7578063095ea7b3146101df57806318160ddd1461020157806323b872dd14610220575b600080fd5b34801561015c57600080fd5b5061017061016b3660046119bd565b610488565b60405190151581526020015b60405180910390f35b34801561019157600080fd5b5061019a6104da565b60405161017c9190611a2a565b3480156101b357600080fd5b506101c76101c2366004611a3d565b61056c565b6040516001600160a01b03909116815260200161017c565b3480156101eb57600080fd5b506101ff6101fa366004611a72565b610595565b005b34801561020d57600080fd5b506008545b60405190815260200161017c565b34801561022c57600080fd5b506101ff61023b366004611a9c565b6105a4565b34801561024c57600080fd5b506101ff610634565b34801561026157600080fd5b506101ff610270366004611b84565b610729565b34801561028157600080fd5b506101ff610290366004611a9c565b610756565b6101ff6102a3366004611bc9565b610776565b3480156102b457600080fd5b506101c76102c3366004611a3d565b6109f7565b3480156102d457600080fd5b506102126102e3366004611cb5565b8051602081830181018051600a8252928201919093012091525481565b34801561030c57600080fd5b5061021261031b366004611cea565b610a02565b34801561032c57600080fd5b5061034061033b366004611a3d565b610a4a565b60405161017c9796959493929190611d05565b34801561035f57600080fd5b506101ff610d2c565b34801561037457600080fd5b506006546001600160a01b03166101c7565b34801561039257600080fd5b5061019a610d40565b3480156103a757600080fd5b506101ff6103b6366004611d80565b610d4f565b3480156103c757600080fd5b506102126103d6366004611cb5565b610d5a565b3480156103e757600080fd5b506101ff6103f6366004611dbc565b610d82565b34801561040757600080fd5b5061041b610416366004611a3d565b610d9a565b60405161017c9190611e38565b34801561043457600080fd5b5061019a610443366004611a3d565b611142565b34801561045457600080fd5b50610170610463366004611ee8565b6111b7565b34801561047457600080fd5b506101ff610483366004611cea565b6111e5565b60006001600160e01b031982166380ac58cd60e01b14806104b957506001600160e01b03198216635b5e139f60e01b145b806104d457506301ffc9a760e01b6001600160e01b03198316145b92915050565b6060600080546104e990611f1b565b80601f016020809104026020016040519081016040528092919081815260200182805461051590611f1b565b80156105625780601f1061053757610100808354040283529160200191610562565b820191906000526020600020905b81548152906001019060200180831161054557829003601f168201915b5050505050905090565b600061057782611223565b506000828152600460205260409020546001600160a01b03166104d4565b6105a082823361125c565b5050565b6001600160a01b0382166105d357604051633250574960e11b8152600060048201526024015b60405180910390fd5b60006105e0838333611269565b9050836001600160a01b0316816001600160a01b03161461062e576040516364283d7b60e01b81526001600160a01b03808616600483015260248201849052821660448201526064016105ca565b50505050565b61063c611362565b47806106815760405162461bcd60e51b81526020600482015260146024820152734e6f2066756e647320746f20776974686472617760601b60448201526064016105ca565b60006106956006546001600160a01b031690565b6001600160a01b03168260405160006040518083038185875af1925050503d80600081146106df576040519150601f19603f3d011682016040523d82523d6000602084013e6106e4565b606091505b50509050806105a05760405162461bcd60e51b815260206004820152601160248201527015da5d1a191c985dd85b0819985a5b1959607a1b60448201526064016105ca565b610731611362565b80600a836040516107429190611f55565b908152604051908190036020019020555050565b61077183838360405180602001604052806000815250610d82565b505050565b61077e61138f565b60008651116107c45760405162461bcd60e51b8152602060048201526012602482015271125b9d985b1a5908185d1a1b195d1948125160721b60448201526064016105ca565b600084511161080d5760405162461bcd60e51b8152602060048201526015602482015274496e76616c6964207265616374696f6e207479706560581b60448201526064016105ca565b6000600a8560405161081f9190611f55565b9081526020016040518091039020549050600081116108785760405162461bcd60e51b8152602060048201526015602482015274496e76616c6964207265616374696f6e207479706560581b60448201526064016105ca565b803410156108bf5760405162461bcd60e51b8152602060048201526014602482015273125b9cdd59999a58da595b9d081c185e5b595b9d60621b60448201526064016105ca565b6008805490819060006108d183611f71565b90915550506040805160e08101825289815260208082018a905281830189905260608201889052608082018790524260a083015260c082018690526000848152600990915291909120815181906109289082611fe0565b506020820151600182019061093d9082611fe0565b50604082015160028201906109529082611fe0565b5060608201516003820155608082015160048201906109719082611fe0565b5060a0820151600582015560c082015160068201906109909082611fe0565b5090505061099e89826113b9565b886001600160a01b0316817ff338c32135899f3812c28d2ff71bccfd208edafe589328f579d0708deab628fb8a896040516109da9291906120a0565b60405180910390a350506109ee6001600755565b50505050505050565b60006104d482611223565b60006001600160a01b038216610a2e576040516322718ad960e21b8152600060048201526024016105ca565b506001600160a01b031660009081526003602052604090205490565b600960205260009081526040902080548190610a6590611f1b565b80601f0160208091040260200160405190810160405280929190818152602001828054610a9190611f1b565b8015610ade5780601f10610ab357610100808354040283529160200191610ade565b820191906000526020600020905b815481529060010190602001808311610ac157829003601f168201915b505050505090806001018054610af390611f1b565b80601f0160208091040260200160405190810160405280929190818152602001828054610b1f90611f1b565b8015610b6c5780601f10610b4157610100808354040283529160200191610b6c565b820191906000526020600020905b815481529060010190602001808311610b4f57829003601f168201915b505050505090806002018054610b8190611f1b565b80601f0160208091040260200160405190810160405280929190818152602001828054610bad90611f1b565b8015610bfa5780601f10610bcf57610100808354040283529160200191610bfa565b820191906000526020600020905b815481529060010190602001808311610bdd57829003601f168201915b505050505090806003015490806004018054610c1590611f1b565b80601f0160208091040260200160405190810160405280929190818152602001828054610c4190611f1b565b8015610c8e5780601f10610c6357610100808354040283529160200191610c8e565b820191906000526020600020905b815481529060010190602001808311610c7157829003601f168201915b505050505090806005015490806006018054610ca990611f1b565b80601f0160208091040260200160405190810160405280929190818152602001828054610cd590611f1b565b8015610d225780601f10610cf757610100808354040283529160200191610d22565b820191906000526020600020905b815481529060010190602001808311610d0557829003601f168201915b5050505050905087565b610d34611362565b610d3e60006113d3565b565b6060600180546104e990611f1b565b6105a0338383611425565b6000600a82604051610d6c9190611f55565b9081526020016040518091039020549050919050565b610d8d8484846105a4565b61062e33858585856114c4565b610dda6040518060e00160405280606081526020016060815260200160608152602001600081526020016060815260200160008152602001606081525090565b6000828152600260205260409020546001600160a01b0316610e355760405162461bcd60e51b8152602060048201526014602482015273151bdad95b88191bd95cc81b9bdd08195e1a5cdd60621b60448201526064016105ca565b60008281526009602052604090819020815160e08101909252805482908290610e5d90611f1b565b80601f0160208091040260200160405190810160405280929190818152602001828054610e8990611f1b565b8015610ed65780601f10610eab57610100808354040283529160200191610ed6565b820191906000526020600020905b815481529060010190602001808311610eb957829003601f168201915b50505050508152602001600182018054610eef90611f1b565b80601f0160208091040260200160405190810160405280929190818152602001828054610f1b90611f1b565b8015610f685780601f10610f3d57610100808354040283529160200191610f68565b820191906000526020600020905b815481529060010190602001808311610f4b57829003601f168201915b50505050508152602001600282018054610f8190611f1b565b80601f0160208091040260200160405190810160405280929190818152602001828054610fad90611f1b565b8015610ffa5780601f10610fcf57610100808354040283529160200191610ffa565b820191906000526020600020905b815481529060010190602001808311610fdd57829003601f168201915b505050505081526020016003820154815260200160048201805461101d90611f1b565b80601f016020809104026020016040519081016040528092919081815260200182805461104990611f1b565b80156110965780601f1061106b57610100808354040283529160200191611096565b820191906000526020600020905b81548152906001019060200180831161107957829003601f168201915b50505050508152602001600582015481526020016006820180546110b990611f1b565b80601f01602080910402602001604051908101604052809291908181526020018280546110e590611f1b565b80156111325780601f1061110757610100808354040283529160200191611132565b820191906000526020600020905b81548152906001019060200180831161111557829003601f168201915b5050505050815250509050919050565b606061114d82611223565b50600061116560408051602081019091526000815290565b9050600081511161118557604051806020016040528060008152506111b0565b8061118f846115ef565b6040516020016111a09291906120c5565b6040516020818303038152906040525b9392505050565b6001600160a01b03918216600090815260056020908152604080832093909416825291909152205460ff1690565b6111ed611362565b6001600160a01b03811661121757604051631e4fbdf760e01b8152600060048201526024016105ca565b611220816113d3565b50565b6000818152600260205260408120546001600160a01b0316806104d457604051637e27328960e01b8152600481018490526024016105ca565b6107718383836001611682565b6000828152600260205260408120546001600160a01b039081169083161561129657611296818486611788565b6001600160a01b038116156112d4576112b3600085600080611682565b6001600160a01b038116600090815260036020526040902080546000190190555b6001600160a01b03851615611303576001600160a01b0385166000908152600360205260409020805460010190555b60008481526002602052604080822080546001600160a01b0319166001600160a01b0389811691821790925591518793918516917fddf252ad1be2c89b69c2b068fc378daa952ba7f163c4a11628f55a4df523b3ef91a4949350505050565b6006546001600160a01b03163314610d3e5760405163118cdaa760e01b81523360048201526024016105ca565b6002600754036113b257604051633ee5aeb560e01b815260040160405180910390fd5b6002600755565b6105a08282604051806020016040528060008152506117ec565b600680546001600160a01b038381166001600160a01b0319831681179093556040519116919082907f8be0079c531659141344cd1fd0a4f28419497f9722a3daafe3b4186f6b6457e090600090a35050565b6001600160a01b03821661145757604051630b61174360e31b81526001600160a01b03831660048201526024016105ca565b6001600160a01b03838116600081815260056020908152604080832094871680845294825291829020805460ff191686151590811790915591519182527f17307eab39ab6107e8899845ad3d59bd9653f200f220920489ca2b5937696c31910160405180910390a3505050565b6001600160a01b0383163b156115e857604051630a85bd0160e11b81526001600160a01b0384169063150b7a02906115069088908890879087906004016120f4565b6020604051808303816000875af1925050508015611541575060408051601f3d908101601f1916820190925261153e91810190612131565b60015b6115aa573d80801561156f576040519150601f19603f3d011682016040523d82523d6000602084013e611574565b606091505b5080516000036115a257604051633250574960e11b81526001600160a01b03851660048201526024016105ca565b805160208201fd5b6001600160e01b03198116630a85bd0160e11b146115e657604051633250574960e11b81526001600160a01b03851660048201526024016105ca565b505b5050505050565b606060006115fc83611804565b600101905060008167ffffffffffffffff81111561161c5761161c611ad8565b6040519080825280601f01601f191660200182016040528015611646576020820181803683370190505b5090508181016020015b600019016f181899199a1a9b1b9c1cb0b131b232b360811b600a86061a8153600a850494508461165057509392505050565b808061169657506001600160a01b03821615155b156117585760006116a684611223565b90506001600160a01b038316158015906116d25750826001600160a01b0316816001600160a01b031614155b80156116e557506116e381846111b7565b155b1561170e5760405163a9fbf51f60e01b81526001600160a01b03841660048201526024016105ca565b81156117565783856001600160a01b0316826001600160a01b03167f8c5be1e5ebec7d5bd14f71427d1e84f3dd0314c0f7b2291e5b200ac8c7c3b92560405160405180910390a45b505b5050600090815260046020526040902080546001600160a01b0319166001600160a01b0392909216919091179055565b6117938383836118dc565b610771576001600160a01b0383166117c157604051637e27328960e01b8152600481018290526024016105ca565b60405163177e802f60e01b81526001600160a01b0383166004820152602481018290526044016105ca565b6117f68383611942565b6107713360008585856114c4565b60008072184f03e93ff9f4daa797ed6e38ed64bf6a1f0160401b83106118435772184f03e93ff9f4daa797ed6e38ed64bf6a1f0160401b830492506040015b6d04ee2d6d415b85acef8100000000831061186f576d04ee2d6d415b85acef8100000000830492506020015b662386f26fc10000831061188d57662386f26fc10000830492506010015b6305f5e10083106118a5576305f5e100830492506008015b61271083106118b957612710830492506004015b606483106118cb576064830492506002015b600a83106104d45760010192915050565b60006001600160a01b0383161580159061193a5750826001600160a01b0316846001600160a01b03161480611916575061191684846111b7565b8061193a57506000828152600460205260409020546001600160a01b038481169116145b949350505050565b6001600160a01b03821661196c57604051633250574960e11b8152600060048201526024016105ca565b600061197a83836000611269565b90506001600160a01b03811615610771576040516339e3563760e11b8152600060048201526024016105ca565b6001600160e01b03198116811461122057600080fd5b6000602082840312156119cf57600080fd5b81356111b0816119a7565b60005b838110156119f55781810151838201526020016119dd565b50506000910152565b60008151808452611a168160208601602086016119da565b601f01601f19169290920160200192915050565b6020815260006111b060208301846119fe565b600060208284031215611a4f57600080fd5b5035919050565b80356001600160a01b0381168114611a6d57600080fd5b919050565b60008060408385031215611a8557600080fd5b611a8e83611a56565b946020939093013593505050565b600080600060608486031215611ab157600080fd5b611aba84611a56565b9250611ac860208501611a56565b9150604084013590509250925092565b634e487b7160e01b600052604160045260246000fd5b600067ffffffffffffffff80841115611b0957611b09611ad8565b604051601f8501601f19908116603f01168101908282118183101715611b3157611b31611ad8565b81604052809350858152868686011115611b4a57600080fd5b858560208301376000602087830101525050509392505050565b600082601f830112611b7557600080fd5b6111b083833560208501611aee565b60008060408385031215611b9757600080fd5b823567ffffffffffffffff811115611bae57600080fd5b611bba85828601611b64565b95602094909401359450505050565b600080600080600080600060e0888a031215611be457600080fd5b611bed88611a56565b9650602088013567ffffffffffffffff80821115611c0a57600080fd5b611c168b838c01611b64565b975060408a0135915080821115611c2c57600080fd5b611c388b838c01611b64565b965060608a0135915080821115611c4e57600080fd5b611c5a8b838c01611b64565b955060808a0135945060a08a0135915080821115611c7757600080fd5b611c838b838c01611b64565b935060c08a0135915080821115611c9957600080fd5b50611ca68a828b01611b64565b91505092959891949750929550565b600060208284031215611cc757600080fd5b813567ffffffffffffffff811115611cde57600080fd5b61193a84828501611b64565b600060208284031215611cfc57600080fd5b6111b082611a56565b60e081526000611d1860e083018a6119fe565b8281036020840152611d2a818a6119fe565b90508281036040840152611d3e81896119fe565b90508660608401528281036080840152611d5881876119fe565b90508460a084015282810360c0840152611d7281856119fe565b9a9950505050505050505050565b60008060408385031215611d9357600080fd5b611d9c83611a56565b915060208301358015158114611db157600080fd5b809150509250929050565b60008060008060808587031215611dd257600080fd5b611ddb85611a56565b9350611de960208601611a56565b925060408501359150606085013567ffffffffffffffff811115611e0c57600080fd5b8501601f81018713611e1d57600080fd5b611e2c87823560208401611aee565b91505092959194509250565b602081526000825160e06020840152611e556101008401826119fe565b90506020840151601f1980858403016040860152611e7383836119fe565b92506040860151915080858403016060860152611e9083836119fe565b92506060860151608086015260808601519150808584030160a0860152611eb783836119fe565b925060a086015160c086015260c08601519150808584030160e086015250611edf82826119fe565b95945050505050565b60008060408385031215611efb57600080fd5b611f0483611a56565b9150611f1260208401611a56565b90509250929050565b600181811c90821680611f2f57607f821691505b602082108103611f4f57634e487b7160e01b600052602260045260246000fd5b50919050565b60008251611f678184602087016119da565b9190910192915050565b600060018201611f9157634e487b7160e01b600052601160045260246000fd5b5060010190565b601f821115610771576000816000526020600020601f850160051c81016020861015611fc15750805b601f850160051c820191505b818110156115e657828155600101611fcd565b815167ffffffffffffffff811115611ffa57611ffa611ad8565b61200e816120088454611f1b565b84611f98565b602080601f831160018114612043576000841561202b5750858301515b600019600386901b1c1916600185901b1785556115e6565b600085815260208120601f198616915b8281101561207257888601518255948401946001909101908401612053565b50858210156120905787850151600019600388901b60f8161c191681555b5050505050600190811b01905550565b6040815260006120b360408301856119fe565b8281036020840152611edf81856119fe565b600083516120d78184602088016119da565b8351908301906120eb8183602088016119da565b01949350505050565b6001600160a01b0385811682528416602082015260408101839052608060608201819052600090612127908301846119fe565b9695505050505050565b60006020828403121561214357600080fd5b81516111b0816119a756fea2646970667358221220130f97643b164c622ef7943a61ca492b2c555bb5061dfb1b68a8f2b859e750e364736f6c63430008180033",
  "linkReferences": {},
  "deployedLinkReferences": {}
}