{
  "_format": "hh-sol-artifact-1",
  "contractName": "MinimalLayerZeroOFT",
  "sourceName": "contracts/MinimalLayerZeroOFT.sol",
  "abi": [
    {
      "inputs": [
        {
          "internalType": "string",
          "name": "_name",
          "type": "string"
        },
        {
          "internalType": "string",
          "name": "_symbol",
          "type": "string"
        },
        {
          "internalType": "address",
          "name": "_lzEndpoint",
          "type": "address"
        },
        {
          "internalType": "address",
          "name": "_delegate",
          "type": "address"
        }
      ],
      "stateMutability": "nonpayable",
      "type": "constructor"
    },
    {
      "inputs": [
        {
          "internalType": "address",
          "name": "spender",
          "type": "address"
        },
        {
          "internalType": "uint256",
          "name": "allowance",
          "type": "uint256"
        },
        {
          "internalType": "uint256",
          "name": "needed",
          "type": "uint256"
        }
      ],
      "name": "ERC20InsufficientAllowance",
      "type": "error"
    },
    {
      "inputs": [
        {
          "internalType": "address",
          "name": "sender",
          "type": "address"
        },
        {
          "internalType": "uint256",
          "name": "balance",
          "type": "uint256"
        },
        {
          "internalType": "uint256",
          "name": "needed",
          "type": "uint256"
        }
      ],
      "name": "ERC20InsufficientBalance",
      "type": "error"
    },
    {
      "inputs": [
        {
          "internalType": "address",
          "name": "approver",
          "type": "address"
        }
      ],
      "name": "ERC20InvalidApprover",
      "type": "error"
    },
    {
      "inputs": [
        {
          "internalType": "address",
          "name": "receiver",
          "type": "address"
        }
      ],
      "name": "ERC20InvalidReceiver",
      "type": "error"
    },
    {
      "inputs": [
        {
          "internalType": "address",
          "name": "sender",
          "type": "address"
        }
      ],
      "name": "ERC20InvalidSender",
      "type": "error"
    },
    {
      "inputs": [
        {
          "internalType": "address",
          "name": "spender",
          "type": "address"
        }
      ],
      "name": "ERC20InvalidSpender",
      "type": "error"
    },
    {
      "inputs": [],
      "name": "InvalidDelegate",
      "type": "error"
    },
    {
      "inputs": [],
      "name": "InvalidEndpointCall",
      "type": "error"
    },
    {
      "inputs": [],
      "name": "InvalidLocalDecimals",
      "type": "error"
    },
    {
      "inputs": [
        {
          "internalType": "bytes",
          "name": "options",
          "type": "bytes"
        }
      ],
      "name": "InvalidOptions",
      "type": "error"
    },
    {
      "inputs": [],
      "name": "LzTokenUnavailable",
      "type": "error"
    },
    {
      "inputs": [
        {
          "internalType": "uint32",
          "name": "eid",
          "type": "uint32"
        }
      ],
      "name": "NoPeer",
      "type": "error"
    },
    {
      "inputs": [
        {
          "internalType": "uint256",
          "name": "msgValue",
          "type": "uint256"
        }
      ],
      "name": "NotEnoughNative",
      "type": "error"
    },
    {
      "inputs": [
        {
          "internalType": "address",
          "name": "addr",
          "type": "address"
        }
      ],
      "name": "OnlyEndpoint",
      "type": "error"
    },
    {
      "inputs": [
        {
          "internalType": "uint32",
          "name": "eid",
          "type": "uint32"
        },
        {
          "internalType": "bytes32",
          "name": "sender",
          "type": "bytes32"
        }
      ],
      "name": "OnlyPeer",
      "type": "error"
    },
    {
      "inputs": [],
      "name": "OnlySelf",
      "type": "error"
    },
    {
      "inputs": [
        {
          "internalType": "address",
          "name": "owner",
          "type": "address"
        }
      ],
      "name": "OwnableInvalidOwner",
      "type": "error"
    },
    {
      "inputs": [
        {
          "internalType": "address",
          "name": "account",
          "type": "address"
        }
      ],
      "name": "OwnableUnauthorizedAccount",
      "type": "error"
    },
    {
      "inputs": [
        {
          "internalType": "address",
          "name": "token",
          "type": "address"
        }
      ],
      "name": "SafeERC20FailedOperation",
      "type": "error"
    },
    {
      "inputs": [
        {
          "internalType": "bytes",
          "name": "result",
          "type": "bytes"
        }
      ],
      "name": "SimulationResult",
      "type": "error"
    },
    {
      "inputs": [
        {
          "internalType": "uint256",
          "name": "amountLD",
          "type": "uint256"
        },
        {
          "internalType": "uint256",
          "name": "minAmountLD",
          "type": "uint256"
        }
      ],
      "name": "SlippageExceeded",
      "type": "error"
    },
    {
      "anonymous": false,
      "inputs": [
        {
          "indexed": true,
          "internalType": "address",
          "name": "owner",
          "type": "address"
        },
        {
          "indexed": true,
          "internalType": "address",
          "name": "spender",
          "type": "address"
        },
        {
          "indexed": false,
          "internalType": "uint256",
          "name": "value",
          "type": "uint256"
        }
      ],
      "name": "Approval",
      "type": "event"
    },
    {
      "anonymous": false,
      "inputs": [
        {
          "indexed": true,
          "internalType": "address",
          "name": "fan",
          "type": "address"
        },
        {
          "indexed": false,
          "internalType": "string",
          "name": "athleteId",
          "type": "string"
        },
        {
          "indexed": false,
          "internalType": "uint256",
          "name": "amount",
          "type": "uint256"
        }
      ],
      "name": "AthleteSupported",
      "type": "event"
    },
    {
      "anonymous": false,
      "inputs": [
        {
          "components": [
            {
              "internalType": "uint32",
              "name": "eid",
              "type": "uint32"
            },
            {
              "internalType": "uint16",
              "name": "msgType",
              "type": "uint16"
            },
            {
              "internalType": "bytes",
              "name": "options",
              "type": "bytes"
            }
          ],
          "indexed": false,
          "internalType": "struct EnforcedOptionParam[]",
          "name": "_enforcedOptions",
          "type": "tuple[]"
        }
      ],
      "name": "EnforcedOptionSet",
      "type": "event"
    },
    {
      "anonymous": false,
      "inputs": [
        {
          "indexed": false,
          "internalType": "address",
          "name": "inspector",
          "type": "address"
        }
      ],
      "name": "MsgInspectorSet",
      "type": "event"
    },
    {
      "anonymous": false,
      "inputs": [
        {
          "indexed": true,
          "internalType": "bytes32",
          "name": "guid",
          "type": "bytes32"
        },
        {
          "indexed": false,
          "internalType": "uint32",
          "name": "srcEid",
          "type": "uint32"
        },
        {
          "indexed": true,
          "internalType": "address",
          "name": "toAddress",
          "type": "address"
        },
        {
          "indexed": false,
          "internalType": "uint256",
          "name": "amountReceivedLD",
          "type": "uint256"
        }
      ],
      "name": "OFTReceived",
      "type": "event"
    },
    {
      "anonymous": false,
      "inputs": [
        {
          "indexed": true,
          "internalType": "bytes32",
          "name": "guid",
          "type": "bytes32"
        },
        {
          "indexed": false,
          "internalType": "uint32",
          "name": "dstEid",
          "type": "uint32"
        },
        {
          "indexed": true,
          "internalType": "address",
          "name": "fromAddress",
          "type": "address"
        },
        {
          "indexed": false,
          "internalType": "uint256",
          "name": "amountSentLD",
          "type": "uint256"
        },
        {
          "indexed": false,
          "internalType": "uint256",
          "name": "amountReceivedLD",
          "type": "uint256"
        }
      ],
      "name": "OFTSent",
      "type": "event"
    },
    {
      "anonymous": false,
      "inputs": [
        {
          "indexed": true,
          "internalType": "address",
          "name": "previousOwner",
          "type": "address"
        },
        {
          "indexed": true,
          "internalType": "address",
          "name": "newOwner",
          "type": "address"
        }
      ],
      "name": "OwnershipTransferred",
      "type": "event"
    },
    {
      "anonymous": false,
      "inputs": [
        {
          "indexed": false,
          "internalType": "uint32",
          "name": "eid",
          "type": "uint32"
        },
        {
          "indexed": false,
          "internalType": "bytes32",
          "name": "peer",
          "type": "bytes32"
        }
      ],
      "name": "PeerSet",
      "type": "event"
    },
    {
      "anonymous": false,
      "inputs": [
        {
          "indexed": false,
          "internalType": "address",
          "name": "preCrimeAddress",
          "type": "address"
        }
      ],
      "name": "PreCrimeSet",
      "type": "event"
    },
    {
      "anonymous": false,
      "inputs": [
        {
          "indexed": true,
          "internalType": "address",
          "name": "from",
          "type": "address"
        },
        {
          "indexed": true,
          "internalType": "address",
          "name": "to",
          "type": "address"
        },
        {
          "indexed": false,
          "internalType": "uint256",
          "name": "value",
          "type": "uint256"
        }
      ],
      "name": "Transfer",
      "type": "event"
    },
    {
      "inputs": [],
      "name": "MAX_BPS",
      "outputs": [
        {
          "internalType": "uint256",
          "name": "",
          "type": "uint256"
        }
      ],
      "stateMutability": "view",
      "type": "function"
    },
    {
      "inputs": [],
      "name": "PLATFORM_FEE_BPS",
      "outputs": [
        {
          "internalType": "uint256",
          "name": "",
          "type": "uint256"
        }
      ],
      "stateMutability": "view",
      "type": "function"
    },
    {
      "inputs": [],
      "name": "SEND",
      "outputs": [
        {
          "internalType": "uint16",
          "name": "",
          "type": "uint16"
        }
      ],
      "stateMutability": "view",
      "type": "function"
    },
    {
      "inputs": [],
      "name": "SEND_AND_CALL",
      "outputs": [
        {
          "internalType": "uint16",
          "name": "",
          "type": "uint16"
        }
      ],
      "stateMutability": "view",
      "type": "function"
    },
    {
      "inputs": [
        {
          "components": [
            {
              "internalType": "uint32",
              "name": "srcEid",
              "type": "uint32"
            },
            {
              "internalType": "bytes32",
              "name": "sender",
              "type": "bytes32"
            },
            {
              "internalType": "uint64",
              "name": "nonce",
              "type": "uint64"
            }
          ],
          "internalType": "struct Origin",
          "name": "origin",
          "type": "tuple"
        }
      ],
      "name": "allowInitializePath",
      "outputs": [
        {
          "internalType": "bool",
          "name": "",
          "type": "bool"
        }
      ],
      "stateMutability": "view",
      "type": "function"
    },
    {
      "inputs": [
        {
          "internalType": "address",
          "name": "owner",
          "type": "address"
        },
        {
          "internalType": "address",
          "name": "spender",
          "type": "address"
        }
      ],
      "name": "allowance",
      "outputs": [
        {
          "internalType": "uint256",
          "name": "",
          "type": "uint256"
        }
      ],
      "stateMutability": "view",
      "type": "function"
    },
    {
      "inputs": [],
      "name": "approvalRequired",
      "outputs": [
        {
          "internalType": "bool",
          "name": "",
          "type": "bool"
        }
      ],
      "stateMutability": "pure",
      "type": "function"
    },
    {
      "inputs": [
        {
          "internalType": "address",
          "name": "spender",
          "type": "address"
        },
        {
          "internalType": "uint256",
          "name": "value",
          "type": "uint256"
        }
      ],
      "name": "approve",
      "outputs": [
        {
          "internalType": "bool",
          "name": "",
          "type": "bool"
        }
      ],
      "stateMutability": "nonpayable",
      "type": "function"
    },
    {
      "inputs": [
        {
          "internalType": "string",
          "name": "",
          "type": "string"
        }
      ],
      "name": "athleteEarnings",
      "outputs": [
        {
          "internalType": "uint256",
          "name": "",
          "type": "uint256"
        }
      ],
      "stateMutability": "view",
      "type": "function"
    },
    {
      "inputs": [
        {
          "internalType": "address",
          "name": "account",
          "type": "address"
        }
      ],
      "name": "balanceOf",
      "outputs": [
        {
          "internalType": "uint256",
          "name": "",
          "type": "uint256"
        }
      ],
      "stateMutability": "view",
      "type": "function"
    },
    {
      "inputs": [
        {
          "internalType": "uint32",
          "name": "_eid",
          "type": "uint32"
        },
        {
          "internalType": "uint16",
          "name": "_msgType",
          "type": "uint16"
        },
        {
          "internalType": "bytes",
          "name": "_extraOptions",
          "type": "bytes"
        }
      ],
      "name": "combineOptions",
      "outputs": [
        {
          "internalType": "bytes",
          "name": "",
          "type": "bytes"
        }
      ],
      "stateMutability": "view",
      "type": "function"
    },
    {
      "inputs": [],
      "name": "decimalConversionRate",
      "outputs": [
        {
          "internalType": "uint256",
          "name": "",
          "type": "uint256"
        }
      ],
      "stateMutability": "view",
      "type": "function"
    },
    {
      "inputs": [],
      "name": "decimals",
      "outputs": [
        {
          "internalType": "uint8",
          "name": "",
          "type": "uint8"
        }
      ],
      "stateMutability": "view",
      "type": "function"
    },
    {
      "inputs": [],
      "name": "endpoint",
      "outputs": [
        {
          "internalType": "contract ILayerZeroEndpointV2",
          "name": "",
          "type": "address"
        }
      ],
      "stateMutability": "view",
      "type": "function"
    },
    {
      "inputs": [
        {
          "internalType": "uint32",
          "name": "eid",
          "type": "uint32"
        },
        {
          "internalType": "uint16",
          "name": "msgType",
          "type": "uint16"
        }
      ],
      "name": "enforcedOptions",
      "outputs": [
        {
          "internalType": "bytes",
          "name": "enforcedOption",
          "type": "bytes"
        }
      ],
      "stateMutability": "view",
      "type": "function"
    },
    {
      "inputs": [
        {
          "internalType": "address",
          "name": "",
          "type": "address"
        },
        {
          "internalType": "string",
          "name": "",
          "type": "string"
        }
      ],
      "name": "fanSupport",
      "outputs": [
        {
          "internalType": "uint256",
          "name": "",
          "type": "uint256"
        }
      ],
      "stateMutability": "view",
      "type": "function"
    },
    {
      "inputs": [],
      "name": "feeRecipient",
      "outputs": [
        {
          "internalType": "address",
          "name": "",
          "type": "address"
        }
      ],
      "stateMutability": "view",
      "type": "function"
    },
    {
      "inputs": [
        {
          "internalType": "string",
          "name": "athleteId",
          "type": "string"
        }
      ],
      "name": "getAthleteEarnings",
      "outputs": [
        {
          "internalType": "uint256",
          "name": "",
          "type": "uint256"
        }
      ],
      "stateMutability": "view",
      "type": "function"
    },
    {
      "inputs": [
        {
          "components": [
            {
              "internalType": "uint32",
              "name": "srcEid",
              "type": "uint32"
            },
            {
              "internalType": "bytes32",
              "name": "sender",
              "type": "bytes32"
            },
            {
              "internalType": "uint64",
              "name": "nonce",
              "type": "uint64"
            }
          ],
          "internalType": "struct Origin",
          "name": "",
          "type": "tuple"
        },
        {
          "internalType": "bytes",
          "name": "",
          "type": "bytes"
        },
        {
          "internalType": "address",
          "name": "_sender",
          "type": "address"
        }
      ],
      "name": "isComposeMsgSender",
      "outputs": [
        {
          "internalType": "bool",
          "name": "",
          "type": "bool"
        }
      ],
      "stateMutability": "view",
      "type": "function"
    },
    {
      "inputs": [
        {
          "internalType": "uint32",
          "name": "_eid",
          "type": "uint32"
        },
        {
          "internalType": "bytes32",
          "name": "_peer",
          "type": "bytes32"
        }
      ],
      "name": "isPeer",
      "outputs": [
        {
          "internalType": "bool",
          "name": "",
          "type": "bool"
        }
      ],
      "stateMutability": "view",
      "type": "function"
    },
    {
      "inputs": [
        {
          "components": [
            {
              "internalType": "uint32",
              "name": "srcEid",
              "type": "uint32"
            },
            {
              "internalType": "bytes32",
              "name": "sender",
              "type": "bytes32"
            },
            {
              "internalType": "uint64",
              "name": "nonce",
              "type": "uint64"
            }
          ],
          "internalType": "struct Origin",
          "name": "_origin",
          "type": "tuple"
        },
        {
          "internalType": "bytes32",
          "name": "_guid",
          "type": "bytes32"
        },
        {
          "internalType": "bytes",
          "name": "_message",
          "type": "bytes"
        },
        {
          "internalType": "address",
          "name": "_executor",
          "type": "address"
        },
        {
          "internalType": "bytes",
          "name": "_extraData",
          "type": "bytes"
        }
      ],
      "name": "lzReceive",
      "outputs": [],
      "stateMutability": "payable",
      "type": "function"
    },
    {
      "inputs": [
        {
          "components": [
            {
              "components": [
                {
                  "internalType": "uint32",
                  "name": "srcEid",
                  "type": "uint32"
                },
                {
                  "internalType": "bytes32",
                  "name": "sender",
                  "type": "bytes32"
                },
                {
                  "internalType": "uint64",
                  "name": "nonce",
                  "type": "uint64"
                }
              ],
              "internalType": "struct Origin",
              "name": "origin",
              "type": "tuple"
            },
            {
              "internalType": "uint32",
              "name": "dstEid",
              "type": "uint32"
            },
            {
              "internalType": "address",
              "name": "receiver",
              "type": "address"
            },
            {
              "internalType": "bytes32",
              "name": "guid",
              "type": "bytes32"
            },
            {
              "internalType": "uint256",
              "name": "value",
              "type": "uint256"
            },
            {
              "internalType": "address",
              "name": "executor",
              "type": "address"
            },
            {
              "internalType": "bytes",
              "name": "message",
              "type": "bytes"
            },
            {
              "internalType": "bytes",
              "name": "extraData",
              "type": "bytes"
            }
          ],
          "internalType": "struct InboundPacket[]",
          "name": "_packets",
          "type": "tuple[]"
        }
      ],
      "name": "lzReceiveAndRevert",
      "outputs": [],
      "stateMutability": "payable",
      "type": "function"
    },
    {
      "inputs": [
        {
          "components": [
            {
              "internalType": "uint32",
              "name": "srcEid",
              "type": "uint32"
            },
            {
              "internalType": "bytes32",
              "name": "sender",
              "type": "bytes32"
            },
            {
              "internalType": "uint64",
              "name": "nonce",
              "type": "uint64"
            }
          ],
          "internalType": "struct Origin",
          "name": "_origin",
          "type": "tuple"
        },
        {
          "internalType": "bytes32",
          "name": "_guid",
          "type": "bytes32"
        },
        {
          "internalType": "bytes",
          "name": "_message",
          "type": "bytes"
        },
        {
          "internalType": "address",
          "name": "_executor",
          "type": "address"
        },
        {
          "internalType": "bytes",
          "name": "_extraData",
          "type": "bytes"
        }
      ],
      "name": "lzReceiveSimulate",
      "outputs": [],
      "stateMutability": "payable",
      "type": "function"
    },
    {
      "inputs": [
        {
          "internalType": "address",
          "name": "to",
          "type": "address"
        },
        {
          "internalType": "uint256",
          "name": "amount",
          "type": "uint256"
        }
      ],
      "name": "mint",
      "outputs": [],
      "stateMutability": "nonpayable",
      "type": "function"
    },
    {
      "inputs": [],
      "name": "msgInspector",
      "outputs": [
        {
          "internalType": "address",
          "name": "",
          "type": "address"
        }
      ],
      "stateMutability": "view",
      "type": "function"
    },
    {
      "inputs": [],
      "name": "name",
      "outputs": [
        {
          "internalType": "string",
          "name": "",
          "type": "string"
        }
      ],
      "stateMutability": "view",
      "type": "function"
    },
    {
      "inputs": [
        {
          "internalType": "uint32",
          "name": "",
          "type": "uint32"
        },
        {
          "internalType": "bytes32",
          "name": "",
          "type": "bytes32"
        }
      ],
      "name": "nextNonce",
      "outputs": [
        {
          "internalType": "uint64",
          "name": "nonce",
          "type": "uint64"
        }
      ],
      "stateMutability": "view",
      "type": "function"
    },
    {
      "inputs": [],
      "name": "oApp",
      "outputs": [
        {
          "internalType": "address",
          "name": "",
          "type": "address"
        }
      ],
      "stateMutability": "view",
      "type": "function"
    },
    {
      "inputs": [],
      "name": "oAppVersion",
      "outputs": [
        {
          "internalType": "uint64",
          "name": "senderVersion",
          "type": "uint64"
        },
        {
          "internalType": "uint64",
          "name": "receiverVersion",
          "type": "uint64"
        }
      ],
      "stateMutability": "pure",
      "type": "function"
    },
    {
      "inputs": [],
      "name": "oftVersion",
      "outputs": [
        {
          "internalType": "bytes4",
          "name": "interfaceId",
          "type": "bytes4"
        },
        {
          "internalType": "uint64",
          "name": "version",
          "type": "uint64"
        }
      ],
      "stateMutability": "pure",
      "type": "function"
    },
    {
      "inputs": [],
      "name": "owner",
      "outputs": [
        {
          "internalType": "address",
          "name": "",
          "type": "address"
        }
      ],
      "stateMutability": "view",
      "type": "function"
    },
    {
      "inputs": [
        {
          "internalType": "uint32",
          "name": "eid",
          "type": "uint32"
        }
      ],
      "name": "peers",
      "outputs": [
        {
          "internalType": "bytes32",
          "name": "peer",
          "type": "bytes32"
        }
      ],
      "stateMutability": "view",
      "type": "function"
    },
    {
      "inputs": [],
      "name": "preCrime",
      "outputs": [
        {
          "internalType": "address",
          "name": "",
          "type": "address"
        }
      ],
      "stateMutability": "view",
      "type": "function"
    },
    {
      "inputs": [
        {
          "components": [
            {
              "internalType": "uint32",
              "name": "dstEid",
              "type": "uint32"
            },
            {
              "internalType": "bytes32",
              "name": "to",
              "type": "bytes32"
            },
            {
              "internalType": "uint256",
              "name": "amountLD",
              "type": "uint256"
            },
            {
              "internalType": "uint256",
              "name": "minAmountLD",
              "type": "uint256"
            },
            {
              "internalType": "bytes",
              "name": "extraOptions",
              "type": "bytes"
            },
            {
              "internalType": "bytes",
              "name": "composeMsg",
              "type": "bytes"
            },
            {
              "internalType": "bytes",
              "name": "oftCmd",
              "type": "bytes"
            }
          ],
          "internalType": "struct SendParam",
          "name": "_sendParam",
          "type": "tuple"
        }
      ],
      "name": "quoteOFT",
      "outputs": [
        {
          "components": [
            {
              "internalType": "uint256",
              "name": "minAmountLD",
              "type": "uint256"
            },
            {
              "internalType": "uint256",
              "name": "maxAmountLD",
              "type": "uint256"
            }
          ],
          "internalType": "struct OFTLimit",
          "name": "oftLimit",
          "type": "tuple"
        },
        {
          "components": [
            {
              "internalType": "int256",
              "name": "feeAmountLD",
              "type": "int256"
            },
            {
              "internalType": "string",
              "name": "description",
              "type": "string"
            }
          ],
          "internalType": "struct OFTFeeDetail[]",
          "name": "oftFeeDetails",
          "type": "tuple[]"
        },
        {
          "components": [
            {
              "internalType": "uint256",
              "name": "amountSentLD",
              "type": "uint256"
            },
            {
              "internalType": "uint256",
              "name": "amountReceivedLD",
              "type": "uint256"
            }
          ],
          "internalType": "struct OFTReceipt",
          "name": "oftReceipt",
          "type": "tuple"
        }
      ],
      "stateMutability": "view",
      "type": "function"
    },
    {
      "inputs": [
        {
          "components": [
            {
              "internalType": "uint32",
              "name": "dstEid",
              "type": "uint32"
            },
            {
              "internalType": "bytes32",
              "name": "to",
              "type": "bytes32"
            },
            {
              "internalType": "uint256",
              "name": "amountLD",
              "type": "uint256"
            },
            {
              "internalType": "uint256",
              "name": "minAmountLD",
              "type": "uint256"
            },
            {
              "internalType": "bytes",
              "name": "extraOptions",
              "type": "bytes"
            },
            {
              "internalType": "bytes",
              "name": "composeMsg",
              "type": "bytes"
            },
            {
              "internalType": "bytes",
              "name": "oftCmd",
              "type": "bytes"
            }
          ],
          "internalType": "struct SendParam",
          "name": "_sendParam",
          "type": "tuple"
        },
        {
          "internalType": "bool",
          "name": "_payInLzToken",
          "type": "bool"
        }
      ],
      "name": "quoteSend",
      "outputs": [
        {
          "components": [
            {
              "internalType": "uint256",
              "name": "nativeFee",
              "type": "uint256"
            },
            {
              "internalType": "uint256",
              "name": "lzTokenFee",
              "type": "uint256"
            }
          ],
          "internalType": "struct MessagingFee",
          "name": "msgFee",
          "type": "tuple"
        }
      ],
      "stateMutability": "view",
      "type": "function"
    },
    {
      "inputs": [],
      "name": "renounceOwnership",
      "outputs": [],
      "stateMutability": "nonpayable",
      "type": "function"
    },
    {
      "inputs": [
        {
          "components": [
            {
              "internalType": "uint32",
              "name": "dstEid",
              "type": "uint32"
            },
            {
              "internalType": "bytes32",
              "name": "to",
              "type": "bytes32"
            },
            {
              "internalType": "uint256",
              "name": "amountLD",
              "type": "uint256"
            },
            {
              "internalType": "uint256",
              "name": "minAmountLD",
              "type": "uint256"
            },
            {
              "internalType": "bytes",
              "name": "extraOptions",
              "type": "bytes"
            },
            {
              "internalType": "bytes",
              "name": "composeMsg",
              "type": "bytes"
            },
            {
              "internalType": "bytes",
              "name": "oftCmd",
              "type": "bytes"
            }
          ],
          "internalType": "struct SendParam",
          "name": "_sendParam",
          "type": "tuple"
        },
        {
          "components": [
            {
              "internalType": "uint256",
              "name": "nativeFee",
              "type": "uint256"
            },
            {
              "internalType": "uint256",
              "name": "lzTokenFee",
              "type": "uint256"
            }
          ],
          "internalType": "struct MessagingFee",
          "name": "_fee",
          "type": "tuple"
        },
        {
          "internalType": "address",
          "name": "_refundAddress",
          "type": "address"
        }
      ],
      "name": "send",
      "outputs": [
        {
          "components": [
            {
              "internalType": "bytes32",
              "name": "guid",
              "type": "bytes32"
            },
            {
              "internalType": "uint64",
              "name": "nonce",
              "type": "uint64"
            },
            {
              "components": [
                {
                  "internalType": "uint256",
                  "name": "nativeFee",
                  "type": "uint256"
                },
                {
                  "internalType": "uint256",
                  "name": "lzTokenFee",
                  "type": "uint256"
                }
              ],
              "internalType": "struct MessagingFee",
              "name": "fee",
              "type": "tuple"
            }
          ],
          "internalType": "struct MessagingReceipt",
          "name": "msgReceipt",
          "type": "tuple"
        },
        {
          "components": [
            {
              "internalType": "uint256",
              "name": "amountSentLD",
              "type": "uint256"
            },
            {
              "internalType": "uint256",
              "name": "amountReceivedLD",
              "type": "uint256"
            }
          ],
          "internalType": "struct OFTReceipt",
          "name": "oftReceipt",
          "type": "tuple"
        }
      ],
      "stateMutability": "payable",
      "type": "function"
    },
    {
      "inputs": [
        {
          "internalType": "address",
          "name": "_delegate",
          "type": "address"
        }
      ],
      "name": "setDelegate",
      "outputs": [],
      "stateMutability": "nonpayable",
      "type": "function"
    },
    {
      "inputs": [
        {
          "components": [
            {
              "internalType": "uint32",
              "name": "eid",
              "type": "uint32"
            },
            {
              "internalType": "uint16",
              "name": "msgType",
              "type": "uint16"
            },
            {
              "internalType": "bytes",
              "name": "options",
              "type": "bytes"
            }
          ],
          "internalType": "struct EnforcedOptionParam[]",
          "name": "_enforcedOptions",
          "type": "tuple[]"
        }
      ],
      "name": "setEnforcedOptions",
      "outputs": [],
      "stateMutability": "nonpayable",
      "type": "function"
    },
    {
      "inputs": [
        {
          "internalType": "address",
          "name": "_msgInspector",
          "type": "address"
        }
      ],
      "name": "setMsgInspector",
      "outputs": [],
      "stateMutability": "nonpayable",
      "type": "function"
    },
    {
      "inputs": [
        {
          "internalType": "uint32",
          "name": "_eid",
          "type": "uint32"
        },
        {
          "internalType": "bytes32",
          "name": "_peer",
          "type": "bytes32"
        }
      ],
      "name": "setPeer",
      "outputs": [],
      "stateMutability": "nonpayable",
      "type": "function"
    },
    {
      "inputs": [
        {
          "internalType": "address",
          "name": "_preCrime",
          "type": "address"
        }
      ],
      "name": "setPreCrime",
      "outputs": [],
      "stateMutability": "nonpayable",
      "type": "function"
    },
    {
      "inputs": [],
      "name": "sharedDecimals",
      "outputs": [
        {
          "internalType": "uint8",
          "name": "",
          "type": "uint8"
        }
      ],
      "stateMutability": "view",
      "type": "function"
    },
    {
      "inputs": [
        {
          "internalType": "string",
          "name": "athleteId",
          "type": "string"
        },
        {
          "internalType": "uint256",
          "name": "amount",
          "type": "uint256"
        }
      ],
      "name": "supportAthlete",
      "outputs": [],
      "stateMutability": "nonpayable",
      "type": "function"
    },
    {
      "inputs": [],
      "name": "symbol",
      "outputs": [
        {
          "internalType": "string",
          "name": "",
          "type": "string"
        }
      ],
      "stateMutability": "view",
      "type": "function"
    },
    {
      "inputs": [],
      "name": "token",
      "outputs": [
        {
          "internalType": "address",
          "name": "",
          "type": "address"
        }
      ],
      "stateMutability": "view",
      "type": "function"
    },
    {
      "inputs": [],
      "name": "totalSupply",
      "outputs": [
        {
          "internalType": "uint256",
          "name": "",
          "type": "uint256"
        }
      ],
      "stateMutability": "view",
      "type": "function"
    },
    {
      "inputs": [
        {
          "internalType": "address",
          "name": "to",
          "type": "address"
        },
        {
          "internalType": "uint256",
          "name": "value",
          "type": "uint256"
        }
      ],
      "name": "transfer",
      "outputs": [
        {
          "internalType": "bool",
          "name": "",
          "type": "bool"
        }
      ],
      "stateMutability": "nonpayable",
      "type": "function"
    },
    {
      "inputs": [
        {
          "internalType": "address",
          "name": "from",
          "type": "address"
        },
        {
          "internalType": "address",
          "name": "to",
          "type": "address"
        },
        {
          "internalType": "uint256",
          "name": "value",
          "type": "uint256"
        }
      ],
      "name": "transferFrom",
      "outputs": [
        {
          "internalType": "bool",
          "name": "",
          "type": "bool"
        }
      ],
      "stateMutability": "nonpayable",
      "type": "function"
    },
    {
      "inputs": [
        {
          "internalType": "address",
          "name": "newOwner",
          "type": "address"
        }
      ],
      "name": "transferOwnership",
      "outputs": [],
      "stateMutability": "nonpayable",
      "type": "function"
    },
    {
      "inputs": [
        {
          "internalType": "address",
          "name": "newRecipient",
          "type": "address"
        }
      ],
      "name": "updateFeeRecipient",
      "outputs": [],
      "stateMutability": "nonpayable",
      "type": "function"
    }
  ],
  "bytecode": "0x60c06040523480156200001157600080fd5b5060405162003dca38038062003dca83398101604081905262000034916200047a565b83838383838360128484818181818d6001600160a01b0381166200007357604051631e4fbdf760e01b8152600060048201526024015b60405180910390fd5b6200007e81620001cf565b506001600160a01b038083166080528116620000ad57604051632d618d8160e21b815260040160405180910390fd5b60805160405163ca5eb5e160e01b81526001600160a01b0383811660048301529091169063ca5eb5e190602401600060405180830381600087803b158015620000f557600080fd5b505af11580156200010a573d6000803e3d6000fd5b5050505050505050620001226200021f60201b60201c565b60ff168360ff16101562000149576040516301e9714b60e41b815260040160405180910390fd5b620001566006846200051f565b6200016390600a6200063e565b60a05250600891506200017990508382620006e7565b506009620001888282620006e7565b5050600c80546001600160a01b0319166001600160a01b03881617905550620001c593508492506a084595161401484a0000009150620002249050565b50505050620007c9565b600080546001600160a01b038381166001600160a01b0319831681178455604051919092169283917f8be0079c531659141344cd1fd0a4f28419497f9722a3daafe3b4186f6b6457e09190a35050565b600690565b6001600160a01b038216620002505760405163ec442f0560e01b8152600060048201526024016200006a565b6200025e6000838362000262565b5050565b6001600160a01b03831662000291578060076000828254620002859190620007b3565b90915550620003059050565b6001600160a01b03831660009081526005602052604090205481811015620002e65760405163391434e360e21b81526001600160a01b038516600482015260248101829052604481018390526064016200006a565b6001600160a01b03841660009081526005602052604090209082900390555b6001600160a01b038216620003235760078054829003905562000342565b6001600160a01b03821660009081526005602052604090208054820190555b816001600160a01b0316836001600160a01b03167fddf252ad1be2c89b69c2b068fc378daa952ba7f163c4a11628f55a4df523b3ef836040516200038891815260200190565b60405180910390a3505050565b634e487b7160e01b600052604160045260246000fd5b600082601f830112620003bd57600080fd5b81516001600160401b0380821115620003da57620003da62000395565b604051601f8301601f19908116603f0116810190828211818310171562000405576200040562000395565b81604052838152602092508660208588010111156200042357600080fd5b600091505b8382101562000447578582018301518183018401529082019062000428565b6000602085830101528094505050505092915050565b80516001600160a01b03811681146200047557600080fd5b919050565b600080600080608085870312156200049157600080fd5b84516001600160401b0380821115620004a957600080fd5b620004b788838901620003ab565b95506020870151915080821115620004ce57600080fd5b50620004dd87828801620003ab565b935050620004ee604086016200045d565b9150620004fe606086016200045d565b905092959194509250565b634e487b7160e01b600052601160045260246000fd5b60ff82811682821603908111156200053b576200053b62000509565b92915050565b600181815b808511156200058257816000190482111562000566576200056662000509565b808516156200057457918102915b93841c939080029062000546565b509250929050565b6000826200059b575060016200053b565b81620005aa575060006200053b565b8160018114620005c35760028114620005ce57620005ee565b60019150506200053b565b60ff841115620005e257620005e262000509565b50506001821b6200053b565b5060208310610133831016604e8410600b841016171562000613575081810a6200053b565b6200061f838362000541565b806000190482111562000636576200063662000509565b029392505050565b60006200064f60ff8416836200058a565b9392505050565b600181811c908216806200066b57607f821691505b6020821081036200068c57634e487b7160e01b600052602260045260246000fd5b50919050565b601f821115620006e2576000816000526020600020601f850160051c81016020861015620006bd5750805b601f850160051c820191505b81811015620006de57828155600101620006c9565b5050505b505050565b81516001600160401b0381111562000703576200070362000395565b6200071b8162000714845462000656565b8462000692565b602080601f8311600181146200075357600084156200073a5750858301515b600019600386901b1c1916600185901b178555620006de565b600085815260208120601f198616915b82811015620007845788860151825594840194600190910190840162000763565b5085821015620007a35787850151600019600388901b60f8161c191681555b5050505050600190811b01905550565b808201808211156200053b576200053b62000509565b60805160a051613595620008356000396000818161074701528181611faa0152818161201f015261222301526000818161060601528181610b6d015281816114bd015281816117b001528181611b1c01528181611df90152818161232401526123db01526135956000f3fe6080604052600436106102e45760003560e01c8063715018a611610190578063bc70b354116100dc578063d5e7488c11610095578063f2fde38b1161006f578063f2fde38b14610998578063fc0c546a14610574578063fd967f47146109b8578063ff7bd03d146109ce57600080fd5b8063d5e7488c146108fa578063dd62ed3e14610932578063f160d3691461097857600080fd5b8063bc70b35414610853578063bd815db014610873578063c7c7f5b314610886578063ca5eb5e1146108a7578063d045a0dc146108c7578063d4243885146108da57600080fd5b8063963efcaa11610149578063b5e7f16111610123578063b5e7f1611461079d578063b731ea0a146107e6578063b98bd07014610806578063bb0b6a531461082657600080fd5b8063963efcaa146107355780639f68b96414610769578063a9059cbb1461077d57600080fd5b8063715018a61461067e5780637d25a05e1461069357806382413eac146106ce578063857749b0146106ee5780638da5cb5b1461070257806395d89b411461072057600080fd5b80633400288b1161024f57806352ae2879116102085780635a0dfe4d116101e25780635a0dfe4d146105bd5780635e280f11146105f45780636fc1b31e1461062857806370a082311461064857600080fd5b806352ae287914610574578063539aa77f146105875780635535d4611461059d57600080fd5b80633400288b146104a7578063344c50ce146104c75780633b6f743b146104e757806340c10f191461051457806346904840146105345780635013511d1461055457600080fd5b8063156a0d0f116102a1578063156a0d0f146103e857806317442b701461040f57806318160ddd146104315780631f5e13341461045057806323b872dd14610465578063313ce5671461048557600080fd5b806306fdde03146102e9578063095ea7b3146103145780630d35b41514610344578063111ecdad1461037357806313137d65146103ab578063134d4f25146103c0575b600080fd5b3480156102f557600080fd5b506102fe6109ee565b60405161030b9190612553565b60405180910390f35b34801561032057600080fd5b5061033461032f36600461257b565b610a80565b604051901515815260200161030b565b34801561035057600080fd5b5061036461035f3660046125bf565b610a9a565b60405161030b939291906125f3565b34801561037f57600080fd5b50600454610393906001600160a01b031681565b6040516001600160a01b03909116815260200161030b565b6103be6103b93660046126e6565b610b6b565b005b3480156103cc57600080fd5b506103d5600281565b60405161ffff909116815260200161030b565b3480156103f457600080fd5b506040805162b9270b60e21b8152600160208201520161030b565b34801561041b57600080fd5b506040805160018152600260208201520161030b565b34801561043d57600080fd5b506007545b60405190815260200161030b565b34801561045c57600080fd5b506103d5600181565b34801561047157600080fd5b50610334610480366004612785565b610c2b565b34801561049157600080fd5b5060125b60405160ff909116815260200161030b565b3480156104b357600080fd5b506103be6104c23660046127df565b610c51565b3480156104d357600080fd5b506104426104e2366004612910565b610c67565b3480156104f357600080fd5b50610507610502366004612952565b610c8f565b60405161030b91906129a3565b34801561052057600080fd5b506103be61052f36600461257b565b610cf6565b34801561054057600080fd5b50600c54610393906001600160a01b031681565b34801561056057600080fd5b506103be61056f3660046129ba565b610d08565b34801561058057600080fd5b5030610393565b34801561059357600080fd5b5061044261012c81565b3480156105a957600080fd5b506102fe6105b8366004612a10565b610f07565b3480156105c957600080fd5b506103346105d83660046127df565b63ffffffff919091166000908152600160205260409020541490565b34801561060057600080fd5b506103937f000000000000000000000000000000000000000000000000000000000000000081565b34801561063457600080fd5b506103be610643366004612a43565b610fac565b34801561065457600080fd5b50610442610663366004612a43565b6001600160a01b031660009081526005602052604090205490565b34801561068a57600080fd5b506103be611009565b34801561069f57600080fd5b506106b66106ae3660046127df565b600092915050565b6040516001600160401b03909116815260200161030b565b3480156106da57600080fd5b506103346106e9366004612a60565b61101d565b3480156106fa57600080fd5b506006610495565b34801561070e57600080fd5b506000546001600160a01b0316610393565b34801561072c57600080fd5b506102fe611032565b34801561074157600080fd5b506104427f000000000000000000000000000000000000000000000000000000000000000081565b34801561077557600080fd5b506000610334565b34801561078957600080fd5b5061033461079836600461257b565b611041565b3480156107a957600080fd5b506104426107b8366004612ac6565b600b602090815260009283526040909220815180830184018051928152908401929093019190912091525481565b3480156107f257600080fd5b50600254610393906001600160a01b031681565b34801561081257600080fd5b506103be610821366004612b59565b61104f565b34801561083257600080fd5b50610442610841366004612b9a565b60016020526000908152604090205481565b34801561085f57600080fd5b506102fe61086e366004612bb5565b611069565b6103be610881366004612b59565b611211565b610899610894366004612c15565b61139b565b60405161030b929190612c82565b3480156108b357600080fd5b506103be6108c2366004612a43565b611496565b6103be6108d53660046126e6565b61151c565b3480156108e657600080fd5b506103be6108f5366004612a43565b61154b565b34801561090657600080fd5b50610442610915366004612910565b8051602081830181018051600a8252928201919093012091525481565b34801561093e57600080fd5b5061044261094d366004612cd4565b6001600160a01b03918216600090815260066020908152604080832093909416825291909152205490565b34801561098457600080fd5b506103be610993366004612a43565b6115a1565b3480156109a457600080fd5b506103be6109b3366004612a43565b611615565b3480156109c457600080fd5b5061044261271081565b3480156109da57600080fd5b506103346109e9366004612d02565b611653565b6060600880546109fd90612d1e565b80601f0160208091040260200160405190810160405280929190818152602001828054610a2990612d1e565b8015610a765780601f10610a4b57610100808354040283529160200191610a76565b820191906000526020600020905b815481529060010190602001808311610a5957829003601f168201915b5050505050905090565b600033610a8e818585611689565b60019150505b92915050565b60408051808201909152600080825260208201526060610acd604051806040016040528060008152602001600081525090565b60408051808201825260008082526001600160401b03602080840182905284518381529081019094529195509182610b28565b604080518082019091526000815260606020820152815260200190600190039081610b005790505b509350600080610b4d604089013560608a0135610b4860208c018c612b9a565b61169b565b60408051808201909152918252602082015296989597505050505050565b7f00000000000000000000000000000000000000000000000000000000000000006001600160a01b03163314610bbb576040516391ac5e4f60e01b81523360048201526024015b60405180910390fd5b60208701803590610bd590610bd0908a612b9a565b6116df565b14610c1357610be76020880188612b9a565b60405163309afaf360e21b815263ffffffff909116600482015260208801356024820152604401610bb2565b610c228787878787878761171b565b50505050505050565b600033610c39858285611882565b610c44858585611901565b60019150505b9392505050565b610c59611960565b610c63828261198d565b5050565b6000600a82604051610c799190612d52565b9081526020016040518091039020549050919050565b60408051808201909152600080825260208201526000610cbf60408501356060860135610b486020880188612b9a565b915050600080610ccf86846119e2565b9092509050610cec610ce46020880188612b9a565b838388611b06565b9695505050505050565b610cfe611960565b610c638282611be7565b60008111610d585760405162461bcd60e51b815260206004820152601d60248201527f416d6f756e74206d7573742062652067726561746572207468616e20300000006044820152606401610bb2565b6000825111610d9e5760405162461bcd60e51b8152602060048201526012602482015271125b9d985b1a5908185d1a1b195d1948125160721b6044820152606401610bb2565b33600090815260056020526040902054811115610df45760405162461bcd60e51b8152602060048201526014602482015273496e73756666696369656e742062616c616e636560601b6044820152606401610bb2565b6000612710610e0561012c84612d84565b610e0f9190612d9b565b90506000610e1d8284612dbd565b9050610e2a333085611901565b80600a85604051610e3b9190612d52565b90815260200160405180910390206000828254610e589190612dd0565b9091555050336000908152600b6020526040908190209051849190610e7e908790612d52565b90815260200160405180910390206000828254610e9b9190612dd0565b90915550508115610ebe57600c54610ebe9030906001600160a01b031684611901565b336001600160a01b03167feee97dba591c139c5eeb93ceecd76cc73c10f730d12c87f11acd8da51cb150918585604051610ef9929190612de3565b60405180910390a250505050565b600360209081526000928352604080842090915290825290208054610f2b90612d1e565b80601f0160208091040260200160405190810160405280929190818152602001828054610f5790612d1e565b8015610fa45780601f10610f7957610100808354040283529160200191610fa4565b820191906000526020600020905b815481529060010190602001808311610f8757829003601f168201915b505050505081565b610fb4611960565b600480546001600160a01b0319166001600160a01b0383169081179091556040519081527ff0be4f1e87349231d80c36b33f9e8639658eeaf474014dee15a3e6a4d4414197906020015b60405180910390a150565b611011611960565b61101b6000611c1d565b565b6001600160a01b03811630145b949350505050565b6060600980546109fd90612d1e565b600033610a8e818585611901565b611057611960565b610c636110648284612e05565b611c6d565b63ffffffff8416600090815260036020908152604080832061ffff8716845290915281208054606092919061109d90612d1e565b80601f01602080910402602001604051908101604052809291908181526020018280546110c990612d1e565b80156111165780601f106110eb57610100808354040283529160200191611116565b820191906000526020600020905b8154815290600101906020018083116110f957829003601f168201915b5050505050905080516000036111665783838080601f01602080910402602001604051908101604052809392919081815260200183838082843760009201919091525092945061102a9350505050565b600083900361117657905061102a565b600283106111f4576111bd84848080601f016020809104026020016040519081016040528093929190818152602001838380828437600092019190915250611d7492505050565b806111cb8460028188612eed565b6040516020016111dd93929190612f17565b60405160208183030381529060405291505061102a565b8383604051639a6d49cd60e01b8152600401610bb2929190612f68565b60005b8181101561131a573683838381811061122f5761122f612f7c565b90506020028101906112419190612f92565b90506112746112536020830183612b9a565b602083013563ffffffff919091166000908152600160205260409020541490565b61127e5750611312565b3063d045a0dc60c08301358360a081013561129d610100830183612fa9565b6112ae610100890160e08a01612a43565b6112bc6101208a018a612fa9565b6040518963ffffffff1660e01b81526004016112de9796959493929190613004565b6000604051808303818588803b1580156112f757600080fd5b505af115801561130b573d6000803e3d6000fd5b5050505050505b600101611214565b50336001600160a01b0316638e9e70996040518163ffffffff1660e01b8152600401600060405180830381865afa158015611359573d6000803e3d6000fd5b505050506040513d6000823e601f3d908101601f19168201604052611381919081019061308a565b604051638351eea760e01b8152600401610bb29190612553565b6113a36124bc565b60408051808201909152600080825260208201526000806113da33604089013560608a01356113d560208c018c612b9a565b611da0565b915091506000806113eb89846119e2565b909250905061141761140060208b018b612b9a565b8383611411368d90038d018d6130f7565b8b611dc6565b60408051808201909152858152602080820186905282519298509096503391907f85496b760a4b7f8d66384b9df21b381f5d1b1e79f229a47aaf4c232edc2fe59a90611465908d018d612b9a565b6040805163ffffffff909216825260208201899052810187905260600160405180910390a350505050935093915050565b61149e611960565b60405163ca5eb5e160e01b81526001600160a01b0382811660048301527f0000000000000000000000000000000000000000000000000000000000000000169063ca5eb5e190602401600060405180830381600087803b15801561150157600080fd5b505af1158015611515573d6000803e3d6000fd5b5050505050565b33301461153c5760405163029a949d60e31b815260040160405180910390fd5b610c2287878787878787610c13565b611553611960565b600280546001600160a01b0319166001600160a01b0383169081179091556040519081527fd48d879cef83a1c0bdda516f27b13ddb1b3f8bbac1c9e1511bb2a659c242776090602001610ffe565b6115a9611960565b6001600160a01b0381166115f35760405162461bcd60e51b8152602060048201526011602482015270125b9d985b1a59081c9958da5c1a595b9d607a1b6044820152606401610bb2565b600c80546001600160a01b0319166001600160a01b0392909216919091179055565b61161d611960565b6001600160a01b03811661164757604051631e4fbdf760e01b815260006004820152602401610bb2565b61165081611c1d565b50565b600060208201803590600190839061166b9086612b9a565b63ffffffff1681526020810191909152604001600020541492915050565b6116968383836001611ed1565b505050565b6000806116a785611fa6565b9150819050838110156116d7576040516371c4efed60e01b81526004810182905260248101859052604401610bb2565b935093915050565b63ffffffff811660009081526001602052604081205480610a945760405163f6ff4fb760e01b815263ffffffff84166004820152602401610bb2565b600061172d61172a8787611fdd565b90565b90506000611759826117476117428a8a611ff5565b612018565b61175460208d018d612b9a565b61204d565b9050602886111561182057600061179661177960608c0160408d01613129565b61178660208d018d612b9a565b846117918c8c612075565b6120c0565b604051633e5ac80960e11b81529091506001600160a01b037f00000000000000000000000000000000000000000000000000000000000000001690637cb59012906117ec9086908d906000908790600401613146565b600060405180830381600087803b15801561180657600080fd5b505af115801561181a573d6000803e3d6000fd5b50505050505b6001600160a01b038216887fefed6d3500546b29533b128a29e3a94d70788727f0507505ac12eaf2e578fd9c61185960208d018d612b9a565b6040805163ffffffff9092168252602082018690520160405180910390a3505050505050505050565b6001600160a01b038381166000908152600660209081526040808320938616835292905220546000198110156118fb57818110156118ec57604051637dc7a0d960e11b81526001600160a01b03841660048201526024810182905260448101839052606401610bb2565b6118fb84848484036000611ed1565b50505050565b6001600160a01b03831661192b57604051634b637e8f60e11b815260006004820152602401610bb2565b6001600160a01b0382166119555760405163ec442f0560e01b815260006004820152602401610bb2565b6116968383836120f2565b6000546001600160a01b0316331461101b5760405163118cdaa760e01b8152336004820152602401610bb2565b63ffffffff8216600081815260016020908152604091829020849055815192835282018390527f238399d427b947898edb290f5ff0f9109849b1c3ba196a42e35f00c50a54b98b910160405180910390a15050565b6060806000611a3f85602001356119f88661221c565b611a0560a0890189612fa9565b8080601f01602080910402602001604051908101604052809392919081815260200183838082843760009201919091525061224892505050565b9093509050600081611a52576001611a55565b60025b9050611a75611a676020880188612b9a565b8261086e60808a018a612fa9565b6004549093506001600160a01b031615611afd576004805460405163043a78eb60e01b81526001600160a01b039091169163043a78eb91611aba918891889101613177565b602060405180830381865afa158015611ad7573d6000803e3d6000fd5b505050506040513d601f19601f82011682018060405250810190611afb919061319c565b505b50509250929050565b60408051808201909152600080825260208201527f00000000000000000000000000000000000000000000000000000000000000006001600160a01b031663ddc28c586040518060a001604052808863ffffffff168152602001611b69896116df565b8152602001878152602001868152602001851515815250306040518363ffffffff1660e01b8152600401611b9e9291906131b9565b6040805180830381865afa158015611bba573d6000803e3d6000fd5b505050506040513d601f19601f82011682018060405250810190611bde9190613262565b95945050505050565b6001600160a01b038216611c115760405163ec442f0560e01b815260006004820152602401610bb2565b610c63600083836120f2565b600080546001600160a01b038381166001600160a01b0319831681178455604051919092169283917f8be0079c531659141344cd1fd0a4f28419497f9722a3daafe3b4186f6b6457e09190a35050565b60005b8151811015611d4457611c9f828281518110611c8e57611c8e612f7c565b602002602001015160400151611d74565b818181518110611cb157611cb1612f7c565b60200260200101516040015160036000848481518110611cd357611cd3612f7c565b60200260200101516000015163ffffffff1663ffffffff1681526020019081526020016000206000848481518110611d0d57611d0d612f7c565b60200260200101516020015161ffff1661ffff1681526020019081526020016000209081611d3b91906132ce565b50600101611c70565b507fbe4864a8e820971c0247f5992e2da559595f7bf076a21cb5928d443d2a13b67481604051610ffe919061338d565b600281015161ffff8116600314610c635781604051639a6d49cd60e01b8152600401610bb29190612553565b600080611dae85858561169b565b9092509050611dbd86836122c2565b94509492505050565b611dce6124bc565b6000611ddd84600001516122f8565b602085015190915015611df757611df78460200151612320565b7f00000000000000000000000000000000000000000000000000000000000000006001600160a01b0316632637a450826040518060a001604052808b63ffffffff168152602001611e478c6116df565b81526020018a815260200189815260200160008960200151111515815250866040518463ffffffff1660e01b8152600401611e839291906131b9565b60806040518083038185885af1158015611ea1573d6000803e3d6000fd5b50505050506040513d601f19601f82011682018060405250810190611ec69190613418565b979650505050505050565b6001600160a01b038416611efb5760405163e602df0560e01b815260006004820152602401610bb2565b6001600160a01b038316611f2557604051634a1406b160e11b815260006004820152602401610bb2565b6001600160a01b03808516600090815260066020908152604080832093871683529290522082905580156118fb57826001600160a01b0316846001600160a01b03167f8c5be1e5ebec7d5bd14f71427d1e84f3dd0314c0f7b2291e5b200ac8c7c3b92584604051611f9891815260200190565b60405180910390a350505050565b60007f0000000000000000000000000000000000000000000000000000000000000000611fd38184612d9b565b610a949190612d84565b6000611fec6020828486612eed565b610c4a91613462565b6000612005602860208486612eed565b61200e91613480565b60c01c9392505050565b6000610a947f00000000000000000000000000000000000000000000000000000000000000006001600160401b038416612d84565b60006001600160a01b0384166120635761dead93505b61206d8484611be7565b509092915050565b60606120848260288186612eed565b8080601f016020809104026020016040519081016040528093929190818152602001838380828437600092019190915250929695505050505050565b6060848484846040516020016120d994939291906134b0565b6040516020818303038152906040529050949350505050565b6001600160a01b03831661211d5780600760008282546121129190612dd0565b9091555061218f9050565b6001600160a01b038316600090815260056020526040902054818110156121705760405163391434e360e21b81526001600160a01b03851660048201526024810182905260448101839052606401610bb2565b6001600160a01b03841660009081526005602052604090209082900390555b6001600160a01b0382166121ab576007805482900390556121ca565b6001600160a01b03821660009081526005602052604090208054820190555b816001600160a01b0316836001600160a01b03167fddf252ad1be2c89b69c2b068fc378daa952ba7f163c4a11628f55a4df523b3ef8360405161220f91815260200190565b60405180910390a3505050565b6000610a947f000000000000000000000000000000000000000000000000000000000000000083612d9b565b805160609015158061229157848460405160200161227d92919091825260c01b6001600160c01b031916602082015260280190565b6040516020818303038152906040526122b8565b848433856040516020016122a894939291906134ff565b6040516020818303038152906040525b9150935093915050565b6001600160a01b0382166122ec57604051634b637e8f60e11b815260006004820152602401610bb2565b610c63826000836120f2565b600081341461231c576040516304fb820960e51b8152346004820152602401610bb2565b5090565b60007f00000000000000000000000000000000000000000000000000000000000000006001600160a01b031663e4fe1d946040518163ffffffff1660e01b8152600401602060405180830381865afa158015612380573d6000803e3d6000fd5b505050506040513d601f19601f820116820180604052508101906123a49190613542565b90506001600160a01b0381166123cd576040516329b99a9560e11b815260040160405180910390fd5b6040805133602482018190527f00000000000000000000000000000000000000000000000000000000000000006001600160a01b0381811660448501526064808501889052855180860390910181526084909401909452602080840180516001600160e01b03166323b872dd60e01b1781528451610c639688169589936118fb93889360009283929091839182885af18061246e576040513d6000823e3d81fd5b50506000513d91508115612486578060011415612493565b6001600160a01b0384163b155b156118fb57604051635274afe760e01b81526001600160a01b0385166004820152602401610bb2565b60405180606001604052806000801916815260200160006001600160401b031681526020016124fe604051806040016040528060008152602001600081525090565b905290565b60005b8381101561251e578181015183820152602001612506565b50506000910152565b6000815180845261253f816020860160208601612503565b601f01601f19169290920160200192915050565b602081526000610c4a6020830184612527565b6001600160a01b038116811461165057600080fd5b6000806040838503121561258e57600080fd5b823561259981612566565b946020939093013593505050565b600060e082840312156125b957600080fd5b50919050565b6000602082840312156125d157600080fd5b81356001600160401b038111156125e757600080fd5b61102a848285016125a7565b8351815260208085015190820152600060a08201604060a0604085015281865180845260c08601915060c08160051b8701019350602080890160005b8381101561266e5788870360bf1901855281518051885283015183880187905261265b87890182612527565b975050938201939082019060010161262f565b5050875160608801525050506020850151608085015250905061102a565b6000606082840312156125b957600080fd5b60008083601f8401126126b057600080fd5b5081356001600160401b038111156126c757600080fd5b6020830191508360208285010111156126df57600080fd5b9250929050565b600080600080600080600060e0888a03121561270157600080fd5b61270b898961268c565b96506060880135955060808801356001600160401b038082111561272e57600080fd5b61273a8b838c0161269e565b909750955060a08a0135915061274f82612566565b90935060c0890135908082111561276557600080fd5b506127728a828b0161269e565b989b979a50959850939692959293505050565b60008060006060848603121561279a57600080fd5b83356127a581612566565b925060208401356127b581612566565b929592945050506040919091013590565b803563ffffffff811681146127da57600080fd5b919050565b600080604083850312156127f257600080fd5b612599836127c6565b634e487b7160e01b600052604160045260246000fd5b604051606081016001600160401b0381118282101715612833576128336127fb565b60405290565b604080519081016001600160401b0381118282101715612833576128336127fb565b604051601f8201601f191681016001600160401b0381118282101715612883576128836127fb565b604052919050565b60006001600160401b038211156128a4576128a46127fb565b50601f01601f191660200190565b60006128c56128c08461288b565b61285b565b90508281528383830111156128d957600080fd5b828260208301376000602084830101529392505050565b600082601f83011261290157600080fd5b610c4a838335602085016128b2565b60006020828403121561292257600080fd5b81356001600160401b0381111561293857600080fd5b61102a848285016128f0565b801515811461165057600080fd5b6000806040838503121561296557600080fd5b82356001600160401b0381111561297b57600080fd5b612987858286016125a7565b925050602083013561299881612944565b809150509250929050565b815181526020808301519082015260408101610a94565b600080604083850312156129cd57600080fd5b82356001600160401b038111156129e357600080fd5b6129ef858286016128f0565b95602094909401359450505050565b803561ffff811681146127da57600080fd5b60008060408385031215612a2357600080fd5b612a2c836127c6565b9150612a3a602084016129fe565b90509250929050565b600060208284031215612a5557600080fd5b8135610c4a81612566565b60008060008060a08587031215612a7657600080fd5b612a80868661268c565b935060608501356001600160401b03811115612a9b57600080fd5b612aa78782880161269e565b9094509250506080850135612abb81612566565b939692955090935050565b60008060408385031215612ad957600080fd5b8235612ae481612566565b915060208301356001600160401b03811115612aff57600080fd5b612b0b858286016128f0565b9150509250929050565b60008083601f840112612b2757600080fd5b5081356001600160401b03811115612b3e57600080fd5b6020830191508360208260051b85010111156126df57600080fd5b60008060208385031215612b6c57600080fd5b82356001600160401b03811115612b8257600080fd5b612b8e85828601612b15565b90969095509350505050565b600060208284031215612bac57600080fd5b610c4a826127c6565b60008060008060608587031215612bcb57600080fd5b612bd4856127c6565b9350612be2602086016129fe565b925060408501356001600160401b03811115612bfd57600080fd5b612c098782880161269e565b95989497509550505050565b60008060008385036080811215612c2b57600080fd5b84356001600160401b03811115612c4157600080fd5b612c4d878288016125a7565b9450506040601f1982011215612c6257600080fd5b506020840191506060840135612c7781612566565b809150509250925092565b600060c082019050835182526001600160401b0360208501511660208301526040840151612cbd604084018280518252602090810151910152565b5082516080830152602083015160a0830152610c4a565b60008060408385031215612ce757600080fd5b8235612cf281612566565b9150602083013561299881612566565b600060608284031215612d1457600080fd5b610c4a838361268c565b600181811c90821680612d3257607f821691505b6020821081036125b957634e487b7160e01b600052602260045260246000fd5b60008251612d64818460208701612503565b9190910192915050565b634e487b7160e01b600052601160045260246000fd5b8082028115828204841417610a9457610a94612d6e565b600082612db857634e487b7160e01b600052601260045260246000fd5b500490565b81810381811115610a9457610a94612d6e565b80820180821115610a9457610a94612d6e565b604081526000612df66040830185612527565b90508260208301529392505050565b60006001600160401b0380841115612e1f57612e1f6127fb565b8360051b6020612e3081830161285b565b868152918501918181019036841115612e4857600080fd5b865b84811015612ee157803586811115612e625760008081fd5b88016060368290031215612e765760008081fd5b612e7e612811565b612e87826127c6565b8152612e948683016129fe565b8682015260408083013589811115612eac5760008081fd5b929092019136601f840112612ec15760008081fd5b612ecf3684358986016128b2565b90820152845250918301918301612e4a565b50979650505050505050565b60008085851115612efd57600080fd5b83861115612f0a57600080fd5b5050820193919092039150565b60008451612f29818460208901612503565b8201838582376000930192835250909392505050565b81835281816020850137506000828201602090810191909152601f909101601f19169091010190565b60208152600061102a602083018486612f3f565b634e487b7160e01b600052603260045260246000fd5b6000823561013e19833603018112612d6457600080fd5b6000808335601e19843603018112612fc057600080fd5b8301803591506001600160401b03821115612fda57600080fd5b6020019150368190038213156126df57600080fd5b6001600160401b038116811461165057600080fd5b63ffffffff613012896127c6565b168152602088013560208201526000604089013561302f81612fef565b6001600160401b03811660408401525087606083015260e0608083015261305a60e083018789612f3f565b6001600160a01b03861660a084015282810360c084015261307c818587612f3f565b9a9950505050505050505050565b60006020828403121561309c57600080fd5b81516001600160401b038111156130b257600080fd5b8201601f810184136130c357600080fd5b80516130d16128c08261288b565b8181528560208385010111156130e657600080fd5b611bde826020830160208601612503565b60006040828403121561310957600080fd5b613111612839565b82358152602083013560208201528091505092915050565b60006020828403121561313b57600080fd5b8135610c4a81612fef565b60018060a01b038516815283602082015261ffff83166040820152608060608201526000610cec6080830184612527565b60408152600061318a6040830185612527565b8281036020840152611bde8185612527565b6000602082840312156131ae57600080fd5b8151610c4a81612944565b6040815263ffffffff8351166040820152602083015160608201526000604084015160a060808401526131ef60e0840182612527565b90506060850151603f198483030160a085015261320c8282612527565b60809690960151151560c08501525050506001600160a01b039190911660209091015290565b60006040828403121561324457600080fd5b61324c612839565b9050815181526020820151602082015292915050565b60006040828403121561327457600080fd5b610c4a8383613232565b601f821115611696576000816000526020600020601f850160051c810160208610156132a75750805b601f850160051c820191505b818110156132c6578281556001016132b3565b505050505050565b81516001600160401b038111156132e7576132e76127fb565b6132fb816132f58454612d1e565b8461327e565b602080601f83116001811461333057600084156133185750858301515b600019600386901b1c1916600185901b1785556132c6565b600085815260208120601f198616915b8281101561335f57888601518255948401946001909101908401613340565b508582101561337d5787850151600019600388901b60f8161c191681555b5050505050600190811b01905550565b600060208083018184528085518083526040925060408601915060408160051b87010184880160005b8381101561340a57888303603f190185528151805163ffffffff1684528781015161ffff168885015286015160608785018190526133f681860183612527565b9689019694505050908601906001016133b6565b509098975050505050505050565b60006080828403121561342a57600080fd5b613432612811565b82518152602083015161344481612fef565b60208201526134568460408501613232565b60408201529392505050565b80356020831015610a9457600019602084900360031b1b1692915050565b6001600160c01b031981358181169160088510156134a85780818660080360031b1b83161692505b505092915050565b6001600160401b0360c01b8560c01b16815263ffffffff60e01b8460e01b16600882015282600c820152600082516134ef81602c850160208701612503565b91909101602c0195945050505050565b8481526001600160401b0360c01b8460c01b16602082015282602882015260008251613532816048850160208701612503565b9190910160480195945050505050565b60006020828403121561355457600080fd5b8151610c4a8161256656fea264697066735822122060e4ec37f8c37dfc42a33a40319832a841572bc02f87c46e6302522c7969e1e764736f6c63430008180033",
  "linkReferences": {},
  "deployedLinkReferences": {}
}