{
  "_format": "hh-sol-artifact-1",
  "contractName": "SimpleFanFuelOFT",
  "sourceName": "contracts/SimpleFanFuelOFT.sol",
  "abi": [
    {
      "inputs": [
        {
          "internalType": "address",
          "name": "_feeRecipient",
          "type": "address"
        }
      ],
      "stateMutability": "nonpayable",
      "type": "constructor"
    },
    {
      "inputs": [
        {
          "internalType": "address",
          "name": "spender",
          "type": "address"
        },
        {
          "internalType": "uint256",
          "name": "allowance",
          "type": "uint256"
        },
        {
          "internalType": "uint256",
          "name": "needed",
          "type": "uint256"
        }
      ],
      "name": "ERC20InsufficientAllowance",
      "type": "error"
    },
    {
      "inputs": [
        {
          "internalType": "address",
          "name": "sender",
          "type": "address"
        },
        {
          "internalType": "uint256",
          "name": "balance",
          "type": "uint256"
        },
        {
          "internalType": "uint256",
          "name": "needed",
          "type": "uint256"
        }
      ],
      "name": "ERC20InsufficientBalance",
      "type": "error"
    },
    {
      "inputs": [
        {
          "internalType": "address",
          "name": "approver",
          "type": "address"
        }
      ],
      "name": "ERC20InvalidApprover",
      "type": "error"
    },
    {
      "inputs": [
        {
          "internalType": "address",
          "name": "receiver",
          "type": "address"
        }
      ],
      "name": "ERC20InvalidReceiver",
      "type": "error"
    },
    {
      "inputs": [
        {
          "internalType": "address",
          "name": "sender",
          "type": "address"
        }
      ],
      "name": "ERC20InvalidSender",
      "type": "error"
    },
    {
      "inputs": [
        {
          "internalType": "address",
          "name": "spender",
          "type": "address"
        }
      ],
      "name": "ERC20InvalidSpender",
      "type": "error"
    },
    {
      "inputs": [
        {
          "internalType": "address",
          "name": "owner",
          "type": "address"
        }
      ],
      "name": "OwnableInvalidOwner",
      "type": "error"
    },
    {
      "inputs": [
        {
          "internalType": "address",
          "name": "account",
          "type": "address"
        }
      ],
      "name": "OwnableUnauthorizedAccount",
      "type": "error"
    },
    {
      "inputs": [],
      "name": "ReentrancyGuardReentrantCall",
      "type": "error"
    },
    {
      "anonymous": false,
      "inputs": [
        {
          "indexed": true,
          "internalType": "address",
          "name": "owner",
          "type": "address"
        },
        {
          "indexed": true,
          "internalType": "address",
          "name": "spender",
          "type": "address"
        },
        {
          "indexed": false,
          "internalType": "uint256",
          "name": "value",
          "type": "uint256"
        }
      ],
      "name": "Approval",
      "type": "event"
    },
    {
      "anonymous": false,
      "inputs": [
        {
          "indexed": true,
          "internalType": "address",
          "name": "fan",
          "type": "address"
        },
        {
          "indexed": false,
          "internalType": "string",
          "name": "athleteId",
          "type": "string"
        },
        {
          "indexed": false,
          "internalType": "uint256",
          "name": "amount",
          "type": "uint256"
        }
      ],
      "name": "AthleteSupported",
      "type": "event"
    },
    {
      "anonymous": false,
      "inputs": [
        {
          "indexed": true,
          "internalType": "address",
          "name": "previousOwner",
          "type": "address"
        },
        {
          "indexed": true,
          "internalType": "address",
          "name": "newOwner",
          "type": "address"
        }
      ],
      "name": "OwnershipTransferred",
      "type": "event"
    },
    {
      "anonymous": false,
      "inputs": [
        {
          "indexed": true,
          "internalType": "address",
          "name": "fan",
          "type": "address"
        },
        {
          "indexed": false,
          "internalType": "string",
          "name": "reactionType",
          "type": "string"
        },
        {
          "indexed": false,
          "internalType": "uint256",
          "name": "cost",
          "type": "uint256"
        }
      ],
      "name": "ReactionPurchased",
      "type": "event"
    },
    {
      "anonymous": false,
      "inputs": [
        {
          "indexed": true,
          "internalType": "address",
          "name": "from",
          "type": "address"
        },
        {
          "indexed": true,
          "internalType": "address",
          "name": "to",
          "type": "address"
        },
        {
          "indexed": false,
          "internalType": "uint256",
          "name": "value",
          "type": "uint256"
        }
      ],
      "name": "Transfer",
      "type": "event"
    },
    {
      "inputs": [],
      "name": "MAX_BPS",
      "outputs": [
        {
          "internalType": "uint256",
          "name": "",
          "type": "uint256"
        }
      ],
      "stateMutability": "view",
      "type": "function"
    },
    {
      "inputs": [],
      "name": "PLATFORM_FEE_BPS",
      "outputs": [
        {
          "internalType": "uint256",
          "name": "",
          "type": "uint256"
        }
      ],
      "stateMutability": "view",
      "type": "function"
    },
    {
      "inputs": [
        {
          "internalType": "address",
          "name": "owner",
          "type": "address"
        },
        {
          "internalType": "address",
          "name": "spender",
          "type": "address"
        }
      ],
      "name": "allowance",
      "outputs": [
        {
          "internalType": "uint256",
          "name": "",
          "type": "uint256"
        }
      ],
      "stateMutability": "view",
      "type": "function"
    },
    {
      "inputs": [
        {
          "internalType": "address",
          "name": "spender",
          "type": "address"
        },
        {
          "internalType": "uint256",
          "name": "value",
          "type": "uint256"
        }
      ],
      "name": "approve",
      "outputs": [
        {
          "internalType": "bool",
          "name": "",
          "type": "bool"
        }
      ],
      "stateMutability": "nonpayable",
      "type": "function"
    },
    {
      "inputs": [
        {
          "internalType": "string",
          "name": "",
          "type": "string"
        }
      ],
      "name": "athleteEarnings",
      "outputs": [
        {
          "internalType": "uint256",
          "name": "",
          "type": "uint256"
        }
      ],
      "stateMutability": "view",
      "type": "function"
    },
    {
      "inputs": [
        {
          "internalType": "address",
          "name": "account",
          "type": "address"
        }
      ],
      "name": "balanceOf",
      "outputs": [
        {
          "internalType": "uint256",
          "name": "",
          "type": "uint256"
        }
      ],
      "stateMutability": "view",
      "type": "function"
    },
    {
      "inputs": [],
      "name": "decimals",
      "outputs": [
        {
          "internalType": "uint8",
          "name": "",
          "type": "uint8"
        }
      ],
      "stateMutability": "view",
      "type": "function"
    },
    {
      "inputs": [
        {
          "internalType": "address",
          "name": "",
          "type": "address"
        },
        {
          "internalType": "string",
          "name": "",
          "type": "string"
        }
      ],
      "name": "fanSupport",
      "outputs": [
        {
          "internalType": "uint256",
          "name": "",
          "type": "uint256"
        }
      ],
      "stateMutability": "view",
      "type": "function"
    },
    {
      "inputs": [],
      "name": "feeRecipient",
      "outputs": [
        {
          "internalType": "address",
          "name": "",
          "type": "address"
        }
      ],
      "stateMutability": "view",
      "type": "function"
    },
    {
      "inputs": [
        {
          "internalType": "string",
          "name": "athleteId",
          "type": "string"
        }
      ],
      "name": "getAthleteEarnings",
      "outputs": [
        {
          "internalType": "uint256",
          "name": "",
          "type": "uint256"
        }
      ],
      "stateMutability": "view",
      "type": "function"
    },
    {
      "inputs": [
        {
          "internalType": "string",
          "name": "reactionType",
          "type": "string"
        }
      ],
      "name": "getReactionCost",
      "outputs": [
        {
          "internalType": "uint256",
          "name": "",
          "type": "uint256"
        }
      ],
      "stateMutability": "view",
      "type": "function"
    },
    {
      "inputs": [
        {
          "internalType": "address",
          "name": "to",
          "type": "address"
        },
        {
          "internalType": "uint256",
          "name": "amount",
          "type": "uint256"
        }
      ],
      "name": "mint",
      "outputs": [],
      "stateMutability": "nonpayable",
      "type": "function"
    },
    {
      "inputs": [],
      "name": "name",
      "outputs": [
        {
          "internalType": "string",
          "name": "",
          "type": "string"
        }
      ],
      "stateMutability": "view",
      "type": "function"
    },
    {
      "inputs": [],
      "name": "owner",
      "outputs": [
        {
          "internalType": "address",
          "name": "",
          "type": "address"
        }
      ],
      "stateMutability": "view",
      "type": "function"
    },
    {
      "inputs": [
        {
          "internalType": "string",
          "name": "reactionType",
          "type": "string"
        }
      ],
      "name": "purchaseReaction",
      "outputs": [],
      "stateMutability": "nonpayable",
      "type": "function"
    },
    {
      "inputs": [
        {
          "internalType": "string",
          "name": "",
          "type": "string"
        }
      ],
      "name": "reactionCosts",
      "outputs": [
        {
          "internalType": "uint256",
          "name": "",
          "type": "uint256"
        }
      ],
      "stateMutability": "view",
      "type": "function"
    },
    {
      "inputs": [],
      "name": "renounceOwnership",
      "outputs": [],
      "stateMutability": "nonpayable",
      "type": "function"
    },
    {
      "inputs": [
        {
          "internalType": "string",
          "name": "athleteId",
          "type": "string"
        },
        {
          "internalType": "uint256",
          "name": "amount",
          "type": "uint256"
        }
      ],
      "name": "supportAthlete",
      "outputs": [],
      "stateMutability": "nonpayable",
      "type": "function"
    },
    {
      "inputs": [],
      "name": "symbol",
      "outputs": [
        {
          "internalType": "string",
          "name": "",
          "type": "string"
        }
      ],
      "stateMutability": "view",
      "type": "function"
    },
    {
      "inputs": [],
      "name": "totalSupply",
      "outputs": [
        {
          "internalType": "uint256",
          "name": "",
          "type": "uint256"
        }
      ],
      "stateMutability": "view",
      "type": "function"
    },
    {
      "inputs": [
        {
          "internalType": "address",
          "name": "to",
          "type": "address"
        },
        {
          "internalType": "uint256",
          "name": "value",
          "type": "uint256"
        }
      ],
      "name": "transfer",
      "outputs": [
        {
          "internalType": "bool",
          "name": "",
          "type": "bool"
        }
      ],
      "stateMutability": "nonpayable",
      "type": "function"
    },
    {
      "inputs": [
        {
          "internalType": "address",
          "name": "from",
          "type": "address"
        },
        {
          "internalType": "address",
          "name": "to",
          "type": "address"
        },
        {
          "internalType": "uint256",
          "name": "value",
          "type": "uint256"
        }
      ],
      "name": "transferFrom",
      "outputs": [
        {
          "internalType": "bool",
          "name": "",
          "type": "bool"
        }
      ],
      "stateMutability": "nonpayable",
      "type": "function"
    },
    {
      "inputs": [
        {
          "internalType": "address",
          "name": "newOwner",
          "type": "address"
        }
      ],
      "name": "transferOwnership",
      "outputs": [],
      "stateMutability": "nonpayable",
      "type": "function"
    },
    {
      "inputs": [
        {
          "internalType": "address",
          "name": "newRecipient",
          "type": "address"
        }
      ],
      "name": "updateFeeRecipient",
      "outputs": [],
      "stateMutability": "nonpayable",
      "type": "function"
    }
  ],
  "bytecode": "0x60806040523480156200001157600080fd5b506040516200162c3803806200162c8339810160408190526200003491620003cb565b336040518060400160405280600d81526020016c2330b7233ab2b6102a37b5b2b760991b815250604051806040016040528060048152602001631195515360e21b8152508160039081620000899190620004a4565b506004620000988282620004a4565b5050506001600160a01b038116620000cb57604051631e4fbdf760e01b8152600060048201526024015b60405180910390fd5b620000d68162000208565b5060016006908155600a80546001600160a01b0384166001600160a01b031990911617905560408051630636c61760e41b815260096004808301829052835160249381900384018120671bc16d674ec800009055636669726560e01b815280820183905284519081900384018120674563918244f4000090556267656d60e81b8152600381018390528451602391819003919091018120678ac7230489e800009055657374726f6e6760d01b815280860183905284516026918190038201812067d02ab486cedc00009055651b1959d95b9960d21b815295860183905284519586900301852068015af1d78b58c400009055636b696e6760e01b85528401529051918290030190206802b5e3af16b1880000905562000201336a084595161401484a0000006200025a565b5062000598565b600580546001600160a01b038381166001600160a01b0319831681179093556040519116919082907f8be0079c531659141344cd1fd0a4f28419497f9722a3daafe3b4186f6b6457e090600090a35050565b6001600160a01b038216620002865760405163ec442f0560e01b815260006004820152602401620000c2565b620002946000838362000298565b5050565b6001600160a01b038316620002c7578060026000828254620002bb919062000570565b909155506200033b9050565b6001600160a01b038316600090815260208190526040902054818110156200031c5760405163391434e360e21b81526001600160a01b03851660048201526024810182905260448101839052606401620000c2565b6001600160a01b03841660009081526020819052604090209082900390555b6001600160a01b038216620003595760028054829003905562000378565b6001600160a01b03821660009081526020819052604090208054820190555b816001600160a01b0316836001600160a01b03167fddf252ad1be2c89b69c2b068fc378daa952ba7f163c4a11628f55a4df523b3ef83604051620003be91815260200190565b60405180910390a3505050565b600060208284031215620003de57600080fd5b81516001600160a01b0381168114620003f657600080fd5b9392505050565b634e487b7160e01b600052604160045260246000fd5b600181811c908216806200042857607f821691505b6020821081036200044957634e487b7160e01b600052602260045260246000fd5b50919050565b601f8211156200049f576000816000526020600020601f850160051c810160208610156200047a5750805b601f850160051c820191505b818110156200049b5782815560010162000486565b5050505b505050565b81516001600160401b03811115620004c057620004c0620003fd565b620004d881620004d1845462000413565b846200044f565b602080601f831160018114620005105760008415620004f75750858301515b600019600386901b1c1916600185901b1785556200049b565b600085815260208120601f198616915b82811015620005415788860151825594840194600190910190840162000520565b5085821015620005605787850151600019600388901b60f8161c191681555b5050505050600190811b01905550565b808201808211156200059257634e487b7160e01b600052601160045260246000fd5b92915050565b61108480620005a86000396000f3fe608060405234801561001057600080fd5b50600436106101585760003560e01c8063715018a6116100c3578063b5e7f1611161007c578063b5e7f161146102ef578063d5e7488c1461032b578063dd62ed3e14610356578063f160d3691461038f578063f2fde38b146103a2578063fd967f47146103b557600080fd5b8063715018a6146102955780638da5cb5b1461029d57806393f02140146102ae57806395d89b41146102c1578063a9059cbb146102c9578063af373466146102dc57600080fd5b806340c10f191161011557806340c10f19146101e557806346904840146101fa5780635013511d14610225578063539aa77f1461023857806369dabc5f1461024157806370a082311461026c57600080fd5b806306fdde031461015d578063095ea7b31461017b57806318160ddd1461019e57806323b872dd146101b0578063313ce567146101c3578063344c50ce146101d2575b600080fd5b6101656103be565b6040516101729190610d04565b60405180910390f35b61018e610189366004610d3a565b610450565b6040519015158152602001610172565b6002545b604051908152602001610172565b61018e6101be366004610d64565b61046a565b60405160128152602001610172565b6101a26101e0366004610e43565b61048e565b6101f86101f3366004610d3a565b6104b6565b005b600a5461020d906001600160a01b031681565b6040516001600160a01b039091168152602001610172565b6101f8610233366004610e80565b6104cc565b6101a261012c81565b6101a261024f366004610e43565b805160208183018101805160098252928201919093012091525481565b6101a261027a366004610ec5565b6001600160a01b031660009081526020819052604090205490565b6101f86106de565b6005546001600160a01b031661020d565b6101f86102bc366004610e43565b6106f2565b610165610805565b61018e6102d7366004610d3a565b610814565b6101a26102ea366004610e43565b610822565b6101a26102fd366004610ee0565b6008602090815260009283526040909220815180830184018051928152908401929093019190912091525481565b6101a2610339366004610e43565b805160208183018101805160078252928201919093012091525481565b6101a2610364366004610f2e565b6001600160a01b03918216600090815260016020908152604080832093909416825291909152205490565b6101f861039d366004610ec5565b610834565b6101f86103b0366004610ec5565b6108a8565b6101a261271081565b6060600380546103cd90610f61565b80601f01602080910402602001604051908101604052809291908181526020018280546103f990610f61565b80156104465780601f1061041b57610100808354040283529160200191610446565b820191906000526020600020905b81548152906001019060200180831161042957829003601f168201915b5050505050905090565b60003361045e8185856108e6565b60019150505b92915050565b6000336104788582856108f8565b610483858585610977565b506001949350505050565b60006007826040516104a09190610f9b565b9081526020016040518091039020549050919050565b6104be6109d6565b6104c88282610a03565b5050565b6104d4610a39565b600081116105295760405162461bcd60e51b815260206004820152601d60248201527f416d6f756e74206d7573742062652067726561746572207468616e203000000060448201526064015b60405180910390fd5b600082511161056f5760405162461bcd60e51b8152602060048201526012602482015271125b9d985b1a5908185d1a1b195d1948125160721b6044820152606401610520565b336000908152602081905260409020548111156105c55760405162461bcd60e51b8152602060048201526014602482015273496e73756666696369656e742062616c616e636560601b6044820152606401610520565b60006127106105d661012c84610fcd565b6105e09190610fe4565b905060006105ee8284611006565b90506105fb333085610977565b8060078560405161060c9190610f9b565b908152602001604051809103902060008282546106299190611019565b90915550503360009081526008602052604090819020905184919061064f908790610f9b565b9081526020016040518091039020600082825461066c9190611019565b9091555050811561068f57600a5461068f9030906001600160a01b031684610977565b336001600160a01b03167feee97dba591c139c5eeb93ceecd76cc73c10f730d12c87f11acd8da51cb1509185856040516106ca92919061102c565b60405180910390a250506104c86001600655565b6106e66109d6565b6106f06000610a63565b565b60006009826040516107049190610f9b565b90815260200160405180910390205490506000811161075d5760405162461bcd60e51b8152602060048201526015602482015274496e76616c6964207265616374696f6e207479706560581b6044820152606401610520565b336000908152602081905260409020548111156107b35760405162461bcd60e51b8152602060048201526014602482015273496e73756666696369656e742062616c616e636560601b6044820152606401610520565b6107be333083610977565b336001600160a01b03167f76698b80cbd2f5cb37f80e15d8c3ec72b27d3f4ff55d3aea908ced33fce114f983836040516107f992919061102c565b60405180910390a25050565b6060600480546103cd90610f61565b60003361045e818585610977565b60006009826040516104a09190610f9b565b61083c6109d6565b6001600160a01b0381166108865760405162461bcd60e51b8152602060048201526011602482015270125b9d985b1a59081c9958da5c1a595b9d607a1b6044820152606401610520565b600a80546001600160a01b0319166001600160a01b0392909216919091179055565b6108b06109d6565b6001600160a01b0381166108da57604051631e4fbdf760e01b815260006004820152602401610520565b6108e381610a63565b50565b6108f38383836001610ab5565b505050565b6001600160a01b03838116600090815260016020908152604080832093861683529290522054600019811015610971578181101561096257604051637dc7a0d960e11b81526001600160a01b03841660048201526024810182905260448101839052606401610520565b61097184848484036000610ab5565b50505050565b6001600160a01b0383166109a157604051634b637e8f60e11b815260006004820152602401610520565b6001600160a01b0382166109cb5760405163ec442f0560e01b815260006004820152602401610520565b6108f3838383610b8a565b6005546001600160a01b031633146106f05760405163118cdaa760e01b8152336004820152602401610520565b6001600160a01b038216610a2d5760405163ec442f0560e01b815260006004820152602401610520565b6104c860008383610b8a565b600260065403610a5c57604051633ee5aeb560e01b815260040160405180910390fd5b6002600655565b600580546001600160a01b038381166001600160a01b0319831681179093556040519116919082907f8be0079c531659141344cd1fd0a4f28419497f9722a3daafe3b4186f6b6457e090600090a35050565b6001600160a01b038416610adf5760405163e602df0560e01b815260006004820152602401610520565b6001600160a01b038316610b0957604051634a1406b160e11b815260006004820152602401610520565b6001600160a01b038085166000908152600160209081526040808320938716835292905220829055801561097157826001600160a01b0316846001600160a01b03167f8c5be1e5ebec7d5bd14f71427d1e84f3dd0314c0f7b2291e5b200ac8c7c3b92584604051610b7c91815260200190565b60405180910390a350505050565b6001600160a01b038316610bb5578060026000828254610baa9190611019565b90915550610c279050565b6001600160a01b03831660009081526020819052604090205481811015610c085760405163391434e360e21b81526001600160a01b03851660048201526024810182905260448101839052606401610520565b6001600160a01b03841660009081526020819052604090209082900390555b6001600160a01b038216610c4357600280548290039055610c62565b6001600160a01b03821660009081526020819052604090208054820190555b816001600160a01b0316836001600160a01b03167fddf252ad1be2c89b69c2b068fc378daa952ba7f163c4a11628f55a4df523b3ef83604051610ca791815260200190565b60405180910390a3505050565b60005b83811015610ccf578181015183820152602001610cb7565b50506000910152565b60008151808452610cf0816020860160208601610cb4565b601f01601f19169290920160200192915050565b602081526000610d176020830184610cd8565b9392505050565b80356001600160a01b0381168114610d3557600080fd5b919050565b60008060408385031215610d4d57600080fd5b610d5683610d1e565b946020939093013593505050565b600080600060608486031215610d7957600080fd5b610d8284610d1e565b9250610d9060208501610d1e565b9150604084013590509250925092565b634e487b7160e01b600052604160045260246000fd5b600082601f830112610dc757600080fd5b813567ffffffffffffffff80821115610de257610de2610da0565b604051601f8301601f19908116603f01168101908282118183101715610e0a57610e0a610da0565b81604052838152866020858801011115610e2357600080fd5b836020870160208301376000602085830101528094505050505092915050565b600060208284031215610e5557600080fd5b813567ffffffffffffffff811115610e6c57600080fd5b610e7884828501610db6565b949350505050565b60008060408385031215610e9357600080fd5b823567ffffffffffffffff811115610eaa57600080fd5b610eb685828601610db6565b95602094909401359450505050565b600060208284031215610ed757600080fd5b610d1782610d1e565b60008060408385031215610ef357600080fd5b610efc83610d1e565b9150602083013567ffffffffffffffff811115610f1857600080fd5b610f2485828601610db6565b9150509250929050565b60008060408385031215610f4157600080fd5b610f4a83610d1e565b9150610f5860208401610d1e565b90509250929050565b600181811c90821680610f7557607f821691505b602082108103610f9557634e487b7160e01b600052602260045260246000fd5b50919050565b60008251610fad818460208701610cb4565b9190910192915050565b634e487b7160e01b600052601160045260246000fd5b808202811582820484141761046457610464610fb7565b60008261100157634e487b7160e01b600052601260045260246000fd5b500490565b8181038181111561046457610464610fb7565b8082018082111561046457610464610fb7565b60408152600061103f6040830185610cd8565b9050826020830152939250505056fea2646970667358221220543a30ceafad30a7864030a7b6dac420f6776e14923a7d337a87197f29931cb964736f6c63430008180033",
  "linkReferences": {},
  "deployedLinkReferences": {}
}